S01D00004D6963726F636F6E74726F6C6C657253797374656D2E7372656344
S11300000C942A000C943F000C943F000C943F0085
S11300100C943F000C943F000C943F000C943F0060
S11300200C943F000C943F000C943F000C943F0050
S11300300C943F000C943F000C943F000C943F0040
S11300400C943F000C943F000C943F000C943F0030
S11300500C943F0011241FBECFE5D8E0DEBFCDBF16
S113006010E0A0E6B0E0EEECF6E002C005900D92E0
S1130070A838B107D9F70E94EC020C9465030C94DC
S11300800000CF93DF93EC0141E06C818B810E94EF
S1130090E60040E06C818B81DF91CF910C94840069
S11300A02CE630E0FC013183208363834483128295
S11300B00C944100CF93DF93EC0141E06C818B8180
S11300C00E94840081E08A83DF91CF910895CF93C9
S11300D0DF93EC0140E06C818B810E9484001A82E2
S11300E0DF91CF910895CF93DF93EC018A81811141
S11300F004C0CE010E945A0003C0CE010E946700D2
S11301008A81DF91CF910895442361F1811109C05F
S11301102BB381E090E001C0880F6A95EAF7822B47
S11301202CC0813049F428B381E090E001C0880FED
S11301306A95EAF7822B2EC0823049F425B381E018
S113014090E001C0880F6A95EAF7822B30C08330B3
S1130150E1F522B381E090E001C0880F6A95EAF7E7
S1130160822B32C081110BC02BB381E090E001C01F
S1130170880F6A95EAF7809582238BBB08958130B6
S113018059F428B381E090E001C0880F6A95EAF73A
S11301908095822388BB0895823059F425B381E089
S11301A090E001C0880F6A95EAF78095822385BBA9
S11301B00895833051F422B381E090E001C0880FA8
S11301C06A95EAF78095822382BB0895442361F1FE
S11301D0811109C02AB381E090E001C0880F6A95BB
S11301E0EAF7822B2CC0813049F427B381E090E0F8
S11301F001C0880F6A95EAF7822B2EC0823049F439
S113020024B381E090E001C0880F6A95EAF7822B5D
S113021030C08330E1F521B381E090E001C0880F64
S11302206A95EAF7822B32C081110BC02AB381E0B0
S113023090E001C0880F6A95EAF7809582238ABB13
S11302400895813059F427B381E090E001C0880F0C
S11302506A95EAF78095822387BB0895823059F422
S113026024B381E090E001C0880F6A95EAF7809595
S1130270822384BB0895833051F421B381E090E05C
S113028001C0880F6A95EAF78095822381BB08959F
S1130290811102C06BBB0895813011F468BB0895CD
S11302A0823011F465BB0895833009F462BB08956C
S11302B0811102C06ABB0895813011F467BB0895AF
S11302C0823011F464BB0895833009F461BB08954E
S11302D0811102C08AB30BC0813011F487B307C007
S11302E0823011F484B303C0833049F481B390E0C5
S11302F002C0959587956A95E2F78170089580E02C
S11303000895CF93DF93EC0141E06C818B810E94CF
S113031084000000000040E06C818B81DF91CF916C
S11303200C948400CF93DF93EC0160E070E08A8149
S11303300E94580141E06D818B810E94840040E05D
S11303406E818B810E94840067E08A810E9468012B
S1130350882321F0CE010E948101F6CF6FEF70E077
S11303608A81DF91CF910C9458010F931F93CF93FF
S1130370DF931F92CDB7DEB78C0169830E9492018F
S1130380698170E0F80182810E94480140E0F8012F
S1130390658183810E94840040E0F8016681838145
S11303A00E948400C8010E94810160E070E0F801AD
S11303B082810F90DF91CF911F910F910C9448018E
S11303C0CF93DF93EC0141E06E818B810E94E600C4
S11303D041E06D818B810E94E60041E06C818B815C
S11303E00E94E60085EA9EE00197F1F700C0000054
S11303F061E0CE010E94B50183EF91E00197F1F72E
S113040000C0000068E3CE010E94B50190E19A9516
S1130410F1F700C06CE0CE010E94B50180E18A953D
S1130420F1F700C0DF91CF910895EF920F93CF932E
S1130430DF93EC0184E790E09983888388E0E0E629
S1130440F0E0DE01179601900D928A95E1F76A8338
S11304504B832E830D83EC82CE01DF91CF910F91DC
S1130460EF900C94E0016058FA01EE0FFF1FE80FC3
S1130470F91F2781620F0C94B501611102C06CE071
S113048005C0411102C06EE001C06FE00E94B501D9
S113049080E18A95F1F700C008950F931F93CF93DD
S11304A0DF931F92CDB7DEB78C0169830E9492015E
S11304B0698170E0F80182810E94480140E0F801FE
S11304C0658183810E94840041E0F8016681838113
S11304D00E948400C8010E94810160E070E0F8017C
S11304E082810F90DF91CF911F910F910C9448015D
S11304F00F931F93CF93DF938C01EB0169916623D4
S113050021F0C8010E944D02F9CFDF91CF911F91D4
S11305100F9108950F931F93CF93DF93EC018901FB
S11305200E943302B801CE01DF91CF911F910F9148
S11305300C9478024F925F926F927F928F929F9267
S1130540AF92BF92CF92DF92EF92FF920F931F93DD
S1130550CF93DF93CDB7DEB77C014B013A01C901DC
S1130560ADB6BEB62DB73EB7201B310B0FB6F8940F
S11305703EBF0FBE2DBF2F5F3F4F69014AE0B90157
S11305800E943003412C512C401651064CF46EE667
S113059070E0C7010E9478023FEF431A530AF4CF78
S11305A09601A301B401C7010E948A020FB6F89410
S11305B0BEBE0FBEADBEDF91CF911F910F91FF90D4
S11305C0EF90DF90CF90BF90AF909F908F907F90EF
S11305D06F905F904F900895CF93DF93CDB7DEB7C0
S11305E064970FB6F894DEBF0FBECDBF46E062E05D
S11305F0CE0140960E94500085E0E82E07E022E0FC
S113060043E061E0CE0101960E94150226E730E046
S113061040E050E060E070E0CE0101960E948A0262
S113062005E010E02DE135E041E050E065E070E0E8
S1130630CE0101960E949A0241E061E0CE0101964A
S11306400E943D02CE0140960E9473002FE986E885
S113065091E0215080409040E1F700C00000F2CFCB
S1130660BB274A3031F4992322F4BDE29095819559
S11306709F4F0C943C03BB27FB015527AA27880FE7
S1130680991FAA1FA41710F0A41B83955051B9F702
S1130690A05DAA3308F0A95DA193009779F7B11181
S11306A0B1931192CB010C945503DC01FC01672F2B
S11306B071917723E1F7329704C07C916D93708335
S11106C06291AE17BF07C8F30895F894FFCFF8
S11306CE000040001400540000000000410020000F
S11306DE00000000E00148656C6C6F20436F6E747F
S10B06EE726F6C6C6572000070
S9030000FC
