S01D00004D6963726F636F6E74726F6C6C657253797374656D2E7372656344
S11300000C942A000C943F000C943F000C943F0085
S11300100C943F000C943F000C943F000C943F0060
S11300200C943F000C943F000C943F000C943F0050
S11300300C943F000C943F000C943F000C943F0040
S11300400C943F000C943F000C943F000C943F0030
S11300500C943F0011241FBECFE5D8E0DEBFCDBF16
S113006010E0A0E6B0E0EEEBFBE002C005900D92DC
S1130070A638B107D9F70E943A040C94DD050C9414
S11300800000662309F43FC0883060F44BB321E0DC
S113009030E0B90102C0660F771F8A95E2F7CB0101
S11300A0842B3FC098EF980F983060F448B321E058
S11300B030E0B90102C0660F771F9A95E2F7CB01D1
S11300C0842B41C090EF980F983060F445B321E041
S11300D030E0B90102C0660F771F9A95E2F7CB01B1
S11300E0842B43C098EE980F983008F051C042B367
S11300F021E030E0B90102C0660F771F9A95E2F75C
S1130100CB01842B44C0883070F44BB321E030E041
S1130110B90102C0660F771F8A95E2F7CB0180957B
S113012084238BBB089598EF980F983070F448B3EC
S113013021E030E0B90102C0660F771F9A95E2F71B
S1130140CB018095842388BB089590EF980F983055
S113015070F445B321E030E0B90102C0660F771FA7
S11301609A95E2F7CB018095842385BB089598EE98
S1130170980F983068F442B321E030E0B90102C02E
S1130180660F771F9A95E2F7CB018095842382BB93
S11301900895662309F43FC0883060F44AB321E02F
S11301A030E0B90102C0660F771F8A95E2F7CB01F0
S11301B0842B3FC098EF980F983060F447B321E048
S11301C030E0B90102C0660F771F9A95E2F7CB01C0
S11301D0842B41C090EF980F983060F444B321E031
S11301E030E0B90102C0660F771F9A95E2F7CB01A0
S11301F0842B43C098EE980F983008F051C041B357
S113020021E030E0B90102C0660F771F9A95E2F74A
S1130210CB01842B44C0883070F44AB321E030E031
S1130220B90102C0660F771F8A95E2F7CB0180956A
S113023084238ABB089598EF980F983070F447B3DD
S113024021E030E0B90102C0660F771F9A95E2F70A
S1130250CB018095842387BB089590EF980F983045
S113026070F444B321E030E0B90102C0660F771F97
S11302709A95E2F7CB018095842384BB089598EE88
S1130280980F983068F441B321E030E0B90102C01E
S1130290660F771F9A95E2F7CB018095842381BB83
S11302A00895482F883020F499B3892F90E014C022
S11302B088EF840F883010F426B30BC080EF840FCE
S11302C0883010F423B305C088EE840F883058F4C6
S11302D020B330E0482FC90102C0959587954A950F
S11302E0E2F78170089580E00895883059F018F499
S11302F0882331F00895803139F0883139F0089538
S11303006BBB089568BB089565BB089562BB0895EF
S1130310883059F018F4882331F00895803139F089
S1130320883139F008956ABB089567BB089564BBAA
S1130330089561BB0895883059F020F4811113C0E9
S113034089B309C0803131F0883169F480B303C0C6
S113035086B301C083B390E002C0959587956A95F2
S1130360E2F78170089580E00895CF93DF93EC0164
S11303706FE070E08A810E9488016FEF70E08A81EB
S1130380DF91CF910C9475012CE730E0FC013183AF
S1130390208362830C94B501CF93DF93EC018CE747
S11303A090E09983888360E070E08A810E948801EC
S11303B060E070E08A81DF91CF910C9475014F92D7
S11303C05F926F927F928F929F92AF92BF92CF92E1
S11303D0DF92EF92FF921F93CF93DF93182FC4E61F
S11303E0D0E0812C912C540175016401812F0E946D
S11303F0510181110AC020E030E040E85FE3C5010B
S1130400B4010E9471044B015C0120E030E040E43F
S113041050E4C701B6010E94C905181604F5A701E6
S11304209601C501B4010E94E2042B013C0123E3BF
S113043033E343E35FE30E94C90587FF3AC0A301A6
S1130440920160E070E080E89FE30E94700423E37F
S113045033E343E35FE30E94C90587FF2CC020E038
S113046030E046EC52E4C701B6010E94DD0481117C
S113047012C020E030E046EC52E4C501B4010E9411
S1130480E204C1E020E030E040E05FE30E94C905FF
S1130490181694F010C020E030E040E85FE3C70194
S11304A0B6010E9471046B017C01219709F09ECF73
S11304B002C0C1E001C0C0E08C2FDF91CF911F9139
S11304C0FF90EF90DF90CF90BF90AF909F908F9070
S11304D07F906F905F904F900895BF92CF92DF927C
S11304E0EF92FF920F931F93CF93DF93B82ED92FE0
S11304F06B01082F192FC0E0F601828160E08C0F98
S11305000E944100E12CF12CF601228184E0820F4B
S11305108E0D0E94DF01F801EE0DFF1D8083FFEFB9
S1130520EF1AFF0A84E0E816F10471F7F6018281FC
S113053061E08C0F0E944100CF5F0C5F1F4FC430FD
S1130540D9F68B2D9D2FDF91CF911F910F91FF90A5
S1130550EF90DF90CF90BF900895CF93DF93EC019D
S113056061E08B810E9441000000000060E08B810B
S1130570DF91CF910C944100CF93DF93EC0160E0C5
S113058070E08A810E94880161E08C810E944100B0
S113059060E08D810E94410067E08A810E949B0196
S11305A0811104C0CE010E94AD02F6CF6FEF70E05E
S11305B08A81DF91CF910C9488010F931F93CF937D
S11305C0DF931F92CDB7DEB78C0169830E94BC0212
S11305D0698170E0F80182810E94750160E0F80190
S11305E084810E94410060E0F80185810E944100FD
S11305F0C8010E94AD0260E070E0F80182810F90B2
S1130600DF91CF911F910F910C947501CF93DF93DC
S1130610EC0161E08D810E94C90061E08C810E943F
S1130620C90061E08B810E94C90085EA9EE00197C0
S1130630F1F700C0000061E0CE010E94DD0283EF0B
S113064091E00197F1F700C0000068E3CE010E9439
S1130650DD0290E19A95F1F700C06CE0CE010E94B2
S1130660DD0280E18A95F1F700C0DF91CF91089512
S11306700F93CF93DF93EC0182E890E09983888312
S113068088E0E0E6F0E0DE01169601900D928A958E
S1130690E1F76A834D832C830B83CE01DF91CF91E5
S11306A00F910C9406036058FA013396EE0FFF1F66
S11306B0E80FF91F2081620F0C94DD020F931F9342
S11306C0CF93DF931F92CDB7DEB78C0169830E946D
S11306D0BC02698170E0F80182810E94750160E0CA
S11306E0F80184810E94410061E0F80185810E9443
S11306F04100C8010E94AD0260E070E0F80182810F
S11307000F90DF91CF911F910F910C9475010F936E
S11307101F93CF93DF938C01EB016991662321F042
S1130720C8010E945E03F9CFDF91CF911F910F9111
S113073008950F931F93CF93DF93EC0189010E94D7
S11307405303B801CE01DF91CF911F910F910C9407
S11307508703CF93DF93EC0180E1E8E6F0E0DE016C
S1130760599601900D928A95E1F71CA61BA61EA628
S11307701DA6FE01CE01499620E22193E817F90750
S1130780E1F784E690E09AA789A7DF91CF910895D5
S1130790FC0185A596A5499714F016A615A685A56E
S11307A096A5DF01A80FB91F6C93019696A785A79C
S11307B00895CF92DF92EF92FF920F931F93CF93FE
S11307C0DF93CDB7DEB7A3970FB6F894DEBF0FBEA5
S11307D0CDBF6C0160E0CE0101960E94C401BE0150
S11307E06F5F7F4FCE0144960E946D02E12CF12C85
S11307F000E010E098012E0D3F1DE4E1F0E0EC0F65
S1130800FD1FE20FF31F8081882339F0F601E20F08
S1130810F31F618DC6010E94C8030F5F1F4F043090
S1130820110541F784E0E80EF11C80E1E816F104BB
S1130830F9F6CE0101960E94CC01A3960FB6F89466
S1130840DEBF0FBECDBFDF91CF911F910F91FF90FF
S1130850EF90DF90CF900895CF93DF93EC0149E1BF
S113086050E0BC0184E890E00E94CE05CE01DF9107
S1130870CF910895CF93DF93CDB7DEB7C055D1099B
S11308800FB6F894DEBF0FBECDBF60E0CE01C096B8
S11308900E94C401CE0101960E94A9030DE12FE13B
S11308A04AE168E0CE018D5B9F4F0E943803CE0180
S11308B001960E94D903CE0101960E942C049C014A
S11308C040E050E060E070E0CE018D5B9F4F0E94FD
S11308D0990387EA91E60197F1F700C00000E7CF9A
S11308E05058BB27AA270E9488040C948F050E94A5
S11308F0810538F00E94880520F039F49F3F19F4EF
S113090026F40C947E050EF4E095E7FB0C94780530
S1130910E92F0E94A00558F3BA17620773078407EA
S1130920950720F079F4A6F50C94C2050EF4E09531
S11309300B2EBA2FA02D0B01B90190010C01CA0195
S1130940A0011124FF27591B99F0593F50F4503E40
S113095068F11A16F040A22F232F342F4427585F32
S1130960F3CF469537952795A795F0405395C9F74A
S11309707EF41F16BA0B620B730B840BBAF0915002
S1130980A1F0FF0FBB1F661F771F881FC2F70EC0A1
S1130990BA0F621F731F841F48F487957795679574
S11309A0B795F7959E3F08F0B0CF9395880F08F060
S11309B09927EE0F9795879508950E94540508F49A
S11309C081E008950E94F6040C948F050E94880526
S11309D058F00E94810540F029F45F3F29F00C94FF
S11309E0780551110C94C3050C947E050E94A00552
S11309F068F39923B1F3552391F3951B550BBB274A
S1130A00AA2762177307840738F09F5F5F4F220F8E
S1130A10331F441FAA1FA9F335D00E2E3AF0E0E885
S1130A2032D091505040E695001CCAF72BD0FE2FCF
S1130A3029D0660F771F881FBB1F26173707480763
S1130A40AB07B0E809F0BB0B802DBF01FF2793581B
S1130A505F4F3AF09E3F510578F00C9478050C9462
S1130A60C3055F3FE4F3983ED4F386957795679585
S1130A70B795F7959F5FC9F7880F911D9695879550
S1130A8097F90895E1E0660F771F881FBB1F62176F
S1130A9073078407BA0720F0621B730B840BBA0B2D
S1130AA0EE1F88F7E0950895990F0008550FAA0BDB
S1130AB0E0E8FEEF16161706E807F907C0F012166D
S1130AC01306E407F50798F0621B730B840B950B70
S1130AD039F40A2661F0232B242B252B21F40895C5
S1130AE00A2609F4A140A6958FEF811D811D089562
S1130AF097F99F6780E870E060E008959FEF80ECCD
S1130B00089500240A94161617061806090608956F
S1130B1000240A9412161306140605060895092ED5
S1130B200394000C11F4882352F0BB0F40F4BF2B44
S1130B3011F460FF04C06F5F7F4F8F4F9F4F089584
S1130B4057FD9058440F551F59F05F3F71F047957A
S1130B50880F97FB991F61F09F3F79F0879508955F
S1130B60121613061406551FF2CF4695F1DF08C07E
S1130B70161617061806991FF1CF8695710561059B
S1130B8008940895E894BB2766277727CB0197F943
S1130B9008950E94540508F48FEF0895FB01DC01C9
S1130BA04150504048F001900D920020C9F701C017
S1110BB01D9241505040E0F70895F894FFCF95
S1130BBE00004000140054003132334134353642C3
S1130BCE373839432A30234400000000B5010000B1
S1090BDE00000603000004
S9030000FC
