S01D00004D6963726F636F6E74726F6C6C657253797374656D2E7372656344
S11300000C942A000C9434000C9434000C943400A6
S11300100C9434000C9434000C9434000C9434008C
S11300200C9434000C9434000C9434000C9434007C
S11300300C9434000C9434000C9434000C9434006C
S11300400C9434000C9434000C9434000C9434005C
S11300500C94340011241FBECFE5D8E0DEBFCDBF21
S11300600E94E3000C94FD000C940000FC017283D8
S1130070618343835483108257B321E030E0C90184
S113008001C0880F4A95EAF7852B87BB88B30380A4
S113009002C0220F331F0A94E2F72095282328BBBD
S11300A00895FC0181819281892B59F42BB381E05D
S11300B090E0038002C0880F991F0A94E2F7822B14
S11300C08BBB818192818130910549F428B30380EF
S11300D002C0880F991F0A94E2F7822B88BB8181A2
S11300E09281029759F425B381E090E0038002C025
S11300F0880F991F0A94E2F7822B85BB8181928134
S1130100039759F422B381E090E0038002C0880F82
S1130110991F0A94E2F7822B82BB81E080830895C1
S1130120FC0181819281892B61F42BB381E090E001
S1130130038002C0880F991F0A94E2F780958223F6
S11301408BBB818192818130910551F428B3038066
S113015002C0880F991F0A94E2F78095822388BB16
S113016081819281029761F425B381E090E003805C
S113017002C0880F991F0A94E2F78095822385BBF9
S113018081819281039761F422B381E090E003803E
S113019002C0880F991F0A94E2F78095822382BBDC
S11301A010820895CF93DF93EC018881811104C0FC
S11301B0CE010E94510003C0CE010E9490008881AC
S11301C0DF91CF910895CF93DF9300D000D01F9299
S11301D0CDB7DEB741E050E061E070E0CE010196BA
S11301E00E943600CE0101960E94D2008FE493EC67
S11101F00197F1F700C00000F5CFF894FFCF9F
S9030000FC
