S01D00004D6963726F636F6E74726F6C6C657253797374656D2E7372656344
S11300000C942C000C9454000C9454000C94540044
S11300100C9454000C9454000C9454000C9454000C
S11300200C9454000C9454000C9454000C945400FC
S11300300C9454000C9454000C9454000C945400EC
S11300400C943F050C9454000C9454000C945400EC
S11300500C9454006505780511241FBECFE5D8E043
S1130060DEBFCDBF10E0A0E6B0E0E8E9FBE002C0EF
S113007005900D92AE37B107D9F720E0AEE7B0E0B6
S113008001C01D92A13AB207E1F710E0CBE2D0E043
S113009004C02197FE010E948405CA32D107C9F722
S11300A00E94D8040C94BF050C940000FC01DB01F1
S11300B014969C9120E030E0921307C0220F331F66
S11300C0E20FF31F7183608308952F5F3F4F283041
S11300D0310591F708959C01205F3F4FFC01119277
S11300E01192CF01E217F307C9F736980895EF92FA
S11300F0FF920F931F93CF93DF93FC012089222358
S1130100B9F1EC017C0100E010E0F70181919191DB
S11301107F010E94F100882331F1F801EE0FFF1FE7
S1130120EC0FFD1F808191810E944D0121E030E0A0
S1130130F901E00FF11FE770FF27EE0FFF1FEC0F2F
S1130140FD1F80819181009741F0DF91CF911F9134
S11301500F91FF90EF900C942B012F5F3F4F2930AC
S1130160310531F705C00F5F1F4F0830110569F6DF
S1130170DF91CF911F910F91FF90EF90089521E0AF
S1130180FC01208B9C01205F3F4F8191919100974E
S113019011F00C942B01E217F307B9F70895FC0151
S11301A0108A36980895CF93DF93EC01188A0E9441
S11301B06B00CE01DF91CF910C94CF00CF93DF93EE
S11301C0EC010E94CF00CE01DF91CF910C946B0023
S11301D027B1207E27B927B1FC018481822B87B9FE
S11301E0089527B12F7130E0FC01448150E081E093
S11301F02417350709F080E0089597B19F7397B9E4
S113020096B1987F96B996B1692B66B927B130E457
S1130210839FC0011124822B87B9339A379A78942B
S113022008950F931F93CF93DF93EC018A018CE61B
S113023090E0998388831E821D826C831B821A82BC
S113024064E083E00E94FD001E830D83DF91CF9163
S11302501F910F910895DC01ED91FC910190F081C3
S1130260E02D0995369A089536980895CF93DF9333
S1130270EC018CE690E099838883CE010E94F10022
S1130280882341F087B1807E87B9CE01DF91CF9179
S11302900C943401DF91CF910895CF93DF93CDB7C0
S11302A0DEB727970FB6F894DEBF0FBECDBF24B1DB
S11302B045B130E0342BDC0113963C932E93129716
S11302C01596ED91FC911697309791F04CE650E01D
S11302D05A8349833C832B8314968C918D83FF83AB
S11302E0EE83CE0101960995CE0101960E94360156
S11302F027960FB6F894DEBF0FBECDBFDF91CF9126
S11303000895662309F43FC0883060F44BB321E0BC
S113031030E0B90102C0660F771F8A95E2F7CB017E
S1130320842B3FC098EF980F983060F448B321E0D5
S113033030E0B90102C0660F771F9A95E2F7CB014E
S1130340842B41C090EF980F983060F445B321E0BE
S113035030E0B90102C0660F771F9A95E2F7CB012E
S1130360842B43C098EE980F983008F051C042B3E4
S113037021E030E0B90102C0660F771F9A95E2F7D9
S1130380CB01842B44C0883070F44BB321E030E0BF
S1130390B90102C0660F771F8A95E2F7CB018095F9
S11303A084238BBB089598EF980F983070F448B36A
S11303B021E030E0B90102C0660F771F9A95E2F799
S11303C0CB018095842388BB089590EF980F9830D3
S11303D070F445B321E030E0B90102C0660F771F25
S11303E09A95E2F7CB018095842385BB089598EE16
S11303F0980F983068F442B321E030E0B90102C0AC
S1130400660F771F9A95E2F7CB018095842382BB10
S11304100895662309F43FC0883060F44AB321E0AC
S113042030E0B90102C0660F771F8A95E2F7CB016D
S1130430842B3FC098EF980F983060F447B321E0C5
S113044030E0B90102C0660F771F9A95E2F7CB013D
S1130450842B41C090EF980F983060F444B321E0AE
S113046030E0B90102C0660F771F9A95E2F7CB011D
S1130470842B43C098EE980F983008F051C041B3D4
S113048021E030E0B90102C0660F771F9A95E2F7C8
S1130490CB01842B44C0883070F44AB321E030E0AF
S11304A0B90102C0660F771F8A95E2F7CB018095E8
S11304B084238ABB089598EF980F983070F447B35B
S11304C021E030E0B90102C0660F771F9A95E2F788
S11304D0CB018095842387BB089590EF980F9830C3
S11304E070F444B321E030E0B90102C0660F771F15
S11304F09A95E2F7CB018095842384BB089598EE06
S1130500980F983068F441B321E030E0B90102C09B
S1130510660F771F9A95E2F7CB018095842381BB00
S11305200895883059F018F4882331F00895803103
S113053039F0883139F008956BBB089568BB08958C
S113054065BB089562BB0895883059F018F4882378
S113055031F00895803139F0883139F008956ABB5B
S1130560089567BB089564BB089561BB08958830FE
S113057059F020F4811113C089B309C0803131F0DE
S1130580883169F480B303C086B301C083B390E0BB
S113059002C0959587956A95E2F78170089580E089
S11305A00895CF93DF93EC0161E08B810E940902EF
S11305B060E08B81DF91CF910C94810122E730E0E0
S11305C0FC0131832083638312820C94D102CF9384
S11305D0DF93EC0182E790E09983888360E08B816C
S11305E00E94090260E08B81DF91CF910C9481011C
S11305F0CF93DF93EC0161E08B810E94810181E064
S11306008A83DF91CF910895CF93DF93EC0188E73C
S113061090E09983888360E070E08A810E94A4025C
S113062060E08D810E94090260E08C810E940902D1
S113063060E08B810E94090260E070E08A810E9480
S1130640910260E08D810E94810160E08C810E94B2
S1130650810160E08B81DF91CF910C948101CF9374
S1130660DF93EC0161E08B810E94810100000000B6
S113067060E08B81DF91CF910C948101CF93DF9364
S1130680EC0160E070E08A810E94A40261E08C8148
S11306900E94810160E08D810E94810167E08A816E
S11306A00E94B702811104C0CE010E942F03F6CF2D
S11306B06FEF70E08A81DF91CF910C94A4020F93C5
S11306C01F93CF93DF931F92CDB7DEB78C0169835D
S11306D00E943E03698170E0F80182810E949102C8
S11306E060E0F80184810E94810160E0F801858165
S11306F00E948101C8010E942F0360E070E0F801AC
S113070082810F90DF91CF911F910F910C949102F0
S1130710CF93DF93EC0161E08D810E94090261E0D7
S11307208C810E94090261E08B810E94090285EAA2
S11307309EE00197F1F700C0000061E0CE010E9445
S11307405F0383EF91E00197F1F700C0000068E3D5
S1130750CE010E945F0390E19A95F1F700C06CE02E
S1130760CE010E945F0380E18A95F1F700C0DF911A
S1130770CF9108950F93CF93DF93EC0188E790E036
S11307809983888388E0E0E6F0E0DE011696019024
S11307900D928A95E1F76A834D832C830B83CE01F6
S11307A0DF91CF910F910C9488036058FA0133962E
S11307B0EE0FFF1FE80FF91F2081620F0C945F03F7
S11307C00F931F93CF93DF931F92CDB7DEB78C01A6
S11307D069830E943E03698170E0F80182810E946E
S11307E0910260E0F80184810E94810161E0F801D6
S11307F085810E948101C8010E942F0360E070E09E
S1130800F80182810F90DF91CF911F910F910C9489
S113081091020F931F93CF93DF938C01EB016991A6
S1130820662321F0C8010E94E003F9CFDF91CF9144
S11308301F910F9108950F931F93CF93DF93EC01B2
S113084089010E94D503B801CE01DF91CF911F9198
S11308500F910C940904CF92DF92EF92FF920F93C1
S11308601F93CF93DF93CDB7DEB760970FB6F8949D
S1130870DEBF0FBECDBF8C017B016A01C9014AE016
S1130880BE016F5F7F4F0E948A059E012F5F3F4F1D
S1130890A601B701C8010E941B0460960FB6F89424
S11308A0DEBF0FBECDBFDF91CF911F910F91FF909F
S11308B0EF90DF90CF900895FC012281338140E0D6
S11308C050E06AE070E08FE890E00E942B046AE751
S11308D070E08FE890E00E940904FFE926E881E0D7
S11308E0F15020408040E1F700C0000008950C94CE
S11308F05C04FC012281338140E050E065E070E05B
S11309008FE890E00E942B046AE770E08FE890E0A3
S11309100C9409040C947904FC012281338140E095
S113092050E060E070E08FE890E00E942B046AE7FA
S113093070E08FE890E00C9409040C948C04FC01A2
S11309402281338141E050E06AE070E08FE890E07A
S11309500E942B046AE770E08FE890E00C9409048D
S11309600C949F04FC012281338141E050E065E056
S113097070E08FE890E00E942B046AE770E08FE853
S113098090E00C9409040C94B204FC01228133819C
S113099041E050E060E070E08FE890E00E942B04BA
S11309A06AE770E08FE890E00C9409040C94C504A5
S11309B0CF93DF93CDB7DEB7AA970FB6F894DEBF17
S11309C00FBECDBF8DE990E00E94F80246ED54E0E1
S11309D063E0CE0184960E94110143EC54E064E08C
S11309E0CE014D960E94110140EB54E065E0CE012A
S11309F046960E9411014DE954E060E0CE010F9645
S1130A000E9411014AE854E061E0CE0108960E9478
S1130A10110147E754E062E0CE0101960E94110102
S1130A20BE016C5D7F4F8EE790E00E945600BE01D0
S1130A30635E7F4F8EE790E00E945600BE016A5EBF
S1130A407F4F8EE790E00E945600BE01615F7F4FAA
S1130A508EE790E00E945600BE01685F7F4F8EE7EC
S1130A6090E00E945600BE016F5F7F4F8EE790E0DA
S1130A700E9456008EE790E00E94BF00FFCF1F92B5
S1130A800F920FB60F9211242F933F934F935F93BE
S1130A906F937F938F939F93AF93BF93EF93FF9342
S1130AA08EE790E00E947700FF91EF91BF91AF91A4
S1130AB09F918F917F916F915F914F913F912F9172
S1130AC00F900FBE0F901F9018950F936DE18DE955
S1130AD090E00E94DE020AE12BE14CE168E08FE83D
S1130AE090E00E94BA038EE790E00F910C94D3003B
S1130AF08EE790E00E94DE008FE890E00E940403FD
S1130B008DE990E00C94E702EE0FFF1F0590F4913D
S1130B10E02D0994BB274A3031F4992322F4BDE235
S1130B20909581959F4F0C949605BB27FB01552703
S1130B30AA27880F991FAA1FA41710F0A41B839536
S1130B405051B9F7A05DAA3308F0A95DA1930097AD
S1130B5079F7B111B1931192CB010C94AF05DC017B
S1130B60FC01672F71917723E1F7329704C07C91E0
S1130B706D9370836291AE17BF07C8F3089510E0B8
S1130B80CBE2D0E004C0FE010E9484052196CC3261
S10B0B90D107C9F7F894FFCF67
S1130B98000040001400540000000000E8000000B9
S1110BA80000D102000000008803202020007D
S9030000FC
