S01D00004D6963726F636F6E74726F6C6C657253797374656D2E7372656344
S11300000C942A000C943F000C943F000C943F0085
S11300100C943F000C943F000C943F000C943F0060
S11300200C943F000C943F000C943F000C943F0050
S11300300C943F000C943F000C943F000C943F0040
S11300400C943F000C943F000C943F000C943F0030
S11300500C943F0011241FBECFE5D8E0DEBFCDBF16
S113006010E0A0E6B0E0E2E8F6E002C005900D92F0
S1130070AA37B107D9F70E9402030C943F030C94EA
S11300800000662309F43FC0883060F44BB321E0DC
S113009030E0B90102C0660F771F8A95E2F7CB0101
S11300A0842B3FC098EF980F983060F448B321E058
S11300B030E0B90102C0660F771F9A95E2F7CB01D1
S11300C0842B41C090EF980F983060F445B321E041
S11300D030E0B90102C0660F771F9A95E2F7CB01B1
S11300E0842B43C098EE980F983008F051C042B367
S11300F021E030E0B90102C0660F771F9A95E2F75C
S1130100CB01842B44C0883070F44BB321E030E041
S1130110B90102C0660F771F8A95E2F7CB0180957B
S113012084238BBB089598EF980F983070F448B3EC
S113013021E030E0B90102C0660F771F9A95E2F71B
S1130140CB018095842388BB089590EF980F983055
S113015070F445B321E030E0B90102C0660F771FA7
S11301609A95E2F7CB018095842385BB089598EE98
S1130170980F983068F442B321E030E0B90102C02E
S1130180660F771F9A95E2F7CB018095842382BB93
S11301900895662309F43FC0883060F44AB321E02F
S11301A030E0B90102C0660F771F8A95E2F7CB01F0
S11301B0842B3FC098EF980F983060F447B321E048
S11301C030E0B90102C0660F771F9A95E2F7CB01C0
S11301D0842B41C090EF980F983060F444B321E031
S11301E030E0B90102C0660F771F9A95E2F7CB01A0
S11301F0842B43C098EE980F983008F051C041B357
S113020021E030E0B90102C0660F771F9A95E2F74A
S1130210CB01842B44C0883070F44AB321E030E031
S1130220B90102C0660F771F8A95E2F7CB0180956A
S113023084238ABB089598EF980F983070F447B3DD
S113024021E030E0B90102C0660F771F9A95E2F70A
S1130250CB018095842387BB089590EF980F983045
S113026070F444B321E030E0B90102C0660F771F97
S11302709A95E2F7CB018095842384BB089598EE88
S1130280980F983068F441B321E030E0B90102C01E
S1130290660F771F9A95E2F7CB018095842381BB83
S11302A00895482F883020F499B3892F90E014C022
S11302B088EF840F883010F426B30BC080EF840FCE
S11302C0883010F423B305C088EE840F883058F4C6
S11302D020B330E0482FC90102C0959587954A950F
S11302E0E2F78170089580E00895883051F018F4A1
S11302F0882331F00895803129F0883121F0089560
S11303006BBB68BB65BB62BB0895883051F018F4C1
S1130310882331F00895803129F0883121F008953F
S11303206ABB67BB64BB61BB0895883059F020F495
S1130330811113C089B309C0803131F0883169F467
S113034080B303C086B301C083B390E002C0959527
S113035087956A95E2F78170089580E00895CF93B8
S1130360DF93EC0161E08B810E94C90060E08B8126
S1130370DF91CF910C9441002CE630E0FC013183F5
S11303802083638312820C94AF01CF93DF93EC013B
S113039061E08B810E94410081E08A83DF91CF91EB
S11303A00895CF93DF93EC0160E08B810E944100BC
S11303B01A82DF91CF910895CF93DF93EC0161E02E
S11303C08A810E94C9008A8161E08F5F0E94C9000E
S11303D08A8161E08E5F0E94C9008A8161E08D5F3D
S11303E00E94C9008A8160E08C5F0E94C9008A81F2
S11303F060E08B5F0E94C9008A8160E08A5F0E948E
S1130400C9008A8160E0895F0E94C90061E070E0F0
S11304108A81DF91CF910C94750122E730E0FC01D1
S11304203183208362830C94DC01AF92BF92CF921C
S1130430DF92EF92FF920F931F93CF93DF935C01B0
S1130440EB016B0110E001E08A8160E0810F0E9402
S11304504100E12CF12C9A8184E0890F8E0D0E94D9
S11304605101F601EE0DFF1D802783838FEFE81AFB
S1130470F80A84E0E816F10471F78A8161E0810FDB
S11304800E9441001F5F84E0C80ED11C1430E1F6C5
S113049080E1FE013396D50101900D928A95E1F732
S11304A0C501DF91CF911F910F91FF90EF90DF90E5
S11304B0CF90BF90AF900895CF93DF93EC0161E0AC
S11304C08B810E9441000000000060E08B81DF917D
S11304D0CF910C944100CF93DF93EC0160E070E086
S11304E08A810E94850161E08C810E94410060E064
S11304F08D810E94410067E08A810E9495018111EB
S113050004C0CE010E945C02F6CF6FEF70E08A81D6
S1130510DF91CF910C9485010F931F93CF93DF93B9
S11305201F92CDB7DEB78C0169830E946B0269818B
S113053070E0F80182810E94750160E0F801848115
S11305400E94410060E0F80185810E944100C801D9
S11305500E945C0260E070E0F80182810F90DF91FC
S1130560CF911F910F910C947501CF93DF93EC0100
S113057061E08D810E94C90061E08C810E94C90004
S113058061E08B810E94C90085EA9EE00197F1F742
S113059000C0000061E0CE010E948C0283EF91E074
S11305A00197F1F700C0000068E3CE010E948C02BD
S11305B090E19A95F1F700C06CE0CE010E948C02A4
S11305C080E18A95F1F700C0DF91CF9108950F93F0
S11305D0CF93DF93EC0188E790E09983888388E0E8
S11305E0E0E6F0E0DE01169601900D928A95E1F7BF
S11305F06A834D832C830B83CE01DF91CF910F91BE
S11306000C94B502CF93DF93CDB7DEB7E5970FB661
S1130610F894DEBF0FBECDBF6DE1CE01C2960E943D
S1130620BC0160E0CE0101960E940D020DE12FE1B4
S11306304AE168E0CE0184960E94E702CE01C296A8
S11306400E94D101BE016F5F7F4FCE0144960E948C
S113065015028D89882329F0CE01C2960E94C50116
S113066004C0CE01C2960E94D1012FE38DE093E035
S1130670215080409040E1F700C00000E3CFF8949F
S1050680FFCFA6
S1130682000040001400540000000000AF0100000C
S10D06920000DC0100000000B502C6
S9030000FC
