:100000000C942A000C9447000C9447000C94470071
:100010000C9447000C9447000C9447000C94470044
:100020000C9447000C9447000C9447000C94470034
:100030000C9447000C9447000C9447000C94470024
:100040000C9447000C9447000C9447000C94470014
:100050000C94470011241FBECFE5D8E0DEBFCDBF12
:1000600012E0A0E6B0E0EAEFF4E102C005900D92E4
:10007000AE3EB107D9F722E0AEEEB2E001C01D926C
:10008000AE3EB207E1F70E9481080C947B0A0C9403
:10009000000021E0FC01848195816817790709F04F
:1000A00020E0822F0895EF92FF920F931F93CF933A
:1000B000DF938C01EC0128964EEA60E070E0CE01FF
:1000C0000E946303F8018181882311F04FEF01C082
:1000D00040E061E070E0CE010E946303F80180819E
:1000E000882311F04FEF01C040E062E070E0CE01E4
:1000F0000E946303F8018481958124E6E22EF12CAD
:10010000B7010E941E0A462F63E070E0CE010E94F4
:100110006303F80184819581B7010E941E0A482F6C
:1001200064E070E0CE010E946303F801438165E062
:1001300070E0CE010E946303F801428166E070E046
:10014000CE01DF91CF911F910F91FF90EF900C9412
:100150006303FC01248135812617370731F4558369
:1001600044830E94530081E0089580E00895FF9247
:100170000F931F93CF93DF93EC018C01085F1F4F08
:1001800061E070E0C8010E945C038F3F19F481E0D8
:10019000898301C0198262E070E0C8010E945C039B
:1001A0008F3F19F481E0888301C0188263E070E01A
:1001B000C8010E945C03F82E64E070E0C8010E9450
:1001C0005C03282F30E0C90144E6F49E800D911DA8
:1001D00011249D838C8365E070E0C8010E945C035C
:1001E0008B8366E070E0C8010E945C038A83DF9124
:1001F000CF911F910F91FF900895EF92FF921F935F
:10020000CF93DF93EC0111E0188319821D821C82C9
:100210008FEF90E09F838E837E0188E0E80EF11CD3
:10022000C7010E945B0360E070E0C7010E945C03AD
:100230008E3A41F4CE01DF91CF911F91FF90EF9064
:100240000C94B700198218831A831B82CE01DF91A8
:10025000CF911F91FF90EF900C945300FC019C01F3
:10026000275E3F4F40E24193E217F307E1F7FC01BD
:100270001082128E118E0895CF93DF93EC011A8EA7
:10028000198E80E1E0E6F0E0DE015B9601900D92D0
:100290008A95E1F7CE010E942E0184E690E09CA7AA
:1002A0008BA7DF91CF910895FC01218D328D2931EB
:1002B000310511F40C942E01FC01E20FF31F608351
:1002C0002F5F3F4FFC01328F218FE20FF31F10820F
:1002D0000895AF92BF92CF92DF92EF92FF920F9369
:1002E0001F93CF93DF93CDB7DEB760970FB6F89427
:1002F000DEBF0FBECDBF8C01CE0101960E9432043D
:10030000D8019B96EC919B979C964C918E2F942FA5
:1003100064E070E00E941E0A2E2F342F37FF02C0C7
:100320002D5F3F4F2C7F280F391FE1E0F0E0EC0FED
:10033000FD1FE20FF31F8081811105C084E690E06C
:10034000F80194A783A7C12CD12CA12CB12C750145
:10035000EC0CFD1CE1E0F0E0EC0FFD1FEE0DFF1DCD
:100360008081882341F0D8019B968D919C919C9728
:100370008E159F05F9F4BFEFAB1ABB0AE4E0AE1689
:10038000B10429F7F4E0CF0ED11C80E1C816D104E6
:10039000E1F660960FB6F894DEBF0FBECDBFDF91D9
:1003A000CF911F910F91FF90EF90DF90CF90BF9072
:1003B000AF900895F801EE0DFF1D638DC8010E94F6
:1003C0005401D8019C96FC92EE929B97D4CF662361
:1003D00009F43FC0883060F44BB321E030E0B9014C
:1003E00002C0660F771F8A95E2F7CB01842B3FC0CE
:1003F00098EF980F983060F448B321E030E0B901ED
:1004000002C0660F771F9A95E2F7CB01842B41C09B
:1004100090EF980F983060F445B321E030E0B901D7
:1004200002C0660F771F9A95E2F7CB01842B43C079
:1004300098EE980F983008F051C042B321E030E0B8
:10044000B90102C0660F771F9A95E2F7CB01842BA2
:1004500044C0883070F44BB321E030E0B90102C0F1
:10046000660F771F8A95E2F7CB01809584238BBBBB
:10047000089598EF980F983070F448B321E030E079
:10048000B90102C0660F771F9A95E2F7CB018095FC
:10049000842388BB089590EF980F983070F445B38B
:1004A00021E030E0B90102C0660F771F9A95E2F7AC
:1004B000CB018095842385BB089598EE980F9830E2
:1004C00068F442B321E030E0B90102C0660F771F43
:1004D0009A95E2F7CB018095842382BB0895662329
:1004E00009F43FC0883060F44AB321E030E0B9013C
:1004F00002C0660F771F8A95E2F7CB01842B3FC0BD
:1005000098EF980F983060F447B321E030E0B901DC
:1005100002C0660F771F9A95E2F7CB01842B41C08A
:1005200090EF980F983060F444B321E030E0B901C7
:1005300002C0660F771F9A95E2F7CB01842B43C068
:1005400098EE980F983008F051C041B321E030E0A8
:10055000B90102C0660F771F9A95E2F7CB01842B91
:1005600044C0883070F44AB321E030E0B90102C0E1
:10057000660F771F8A95E2F7CB01809584238ABBAB
:10058000089598EF980F983070F447B321E030E069
:10059000B90102C0660F771F9A95E2F7CB018095EB
:1005A000842387BB089590EF980F983070F444B37C
:1005B00021E030E0B90102C0660F771F9A95E2F79B
:1005C000CB018095842384BB089598EE980F9830D2
:1005D00068F441B321E030E0B90102C0660F771F33
:1005E0009A95E2F7CB018095842381BB0895482F2B
:1005F000883020F499B3892F90E014C088EF840FDD
:10060000883010F426B30BC080EF840F883010F4CC
:1006100023B305C088EE840F883058F420B330E04F
:10062000482FC90102C0959587954A95E2F78170D8
:10063000089580E00895883059F018F4882331F047
:100640000895803139F0883139F008956BBB0895F1
:1006500068BB089565BB089562BB0895883059F062
:1006600018F4882331F00895803139F0883139F059
:1006700008956ABB089567BB089564BB089561BB84
:100680000895883059F020F4811113C089B309C04E
:10069000803131F0883169F480B303C086B301C082
:1006A00083B390E002C0959587956A95E2F78170D3
:1006B000089580E008950895E199FECF7FBB6EBB59
:1006C000E09A8DB30895E199FECF7FBB6EBB4DBB21
:1006D000E29AE19A0895CF93DF93EC0161E08B8178
:1006E0000E946F0260E08B81DF91CF910C94E70153
:1006F0002CE730E0FC0131832083638312820C9469
:100700006B03CF93DF93EC0161E08B810E94E701E3
:1007100081E08A83DF91CF910895CF93DF93EC013D
:100720006FE070E08A810E942E036FEF70E08A8193
:10073000DF91CF910C941B0322E830E0FC01318360
:10074000208362830C948D034F925F926F927F920D
:100750008F929F92AF92BF92CF92DF92EF92FF92D1
:100760001F93CF93DF93182FC4E6D0E0812C912CF8
:10077000540175016401812F0E94F70281110AC0A2
:1007800020E030E040E85FE3C501B4010E94C10809
:100790004B015C0120E030E040E450E4C701B601C9
:1007A0000E94190A181604F5A7019601C501B401A3
:1007B0000E9432092B013C0123E333E343E35FE36F
:1007C0000E94190A87FF3AC0A301920160E070E01D
:1007D00080E89FE30E94C00823E333E343E35FE341
:1007E0000E94190A87FF2CC020E030E046EC52E45A
:1007F000C701B6010E942D09811112C020E030E02E
:1008000046EC52E4C501B4010E943209C1E020E087
:1008100030E040E05FE30E94190A181694F010C01F
:1008200020E030E040E85FE3C701B6010E94C10864
:100830006B017C01219709F09ECF02C0C1E001C08D
:10084000C0E08C2FDF91CF911F91FF90EF90DF9050
:10085000CF90BF90AF909F908F907F906F905F9060
:100860004F900895BF92CF92DF92EF92FF920F9335
:100870001F93CF93DF93B82ED92F6B01082F192F19
:10088000C0E0F601828160E08C0F0E94E701E12C5C
:10089000F12CF601228184E0820F8E0D0E94A403C8
:1008A000F801EE0DFF1D8083FFEFEF1AFF0A84E0D1
:1008B000E816F10471F7F601828161E08C0F0E9465
:1008C000E701CF5F0C5F1F4FC430D9F68B2D9D2FF2
:1008D000DF91CF911F910F91FF90EF90DF90CF901C
:1008E000BF900895CF93DF93EC0161E08B810E946C
:1008F000E7010000000060E08B81DF91CF910C9454
:10090000E701CF93DF93EC0160E070E08A810E9401
:100910002E0361E08C810E94E70160E08D810E94DE
:10092000E70167E08A810E944103811104C0CE0182
:100930000E947204F6CF6FEF70E08A81DF91CF9151
:100940000C942E030F931F93CF93DF931F92CDB779
:10095000DEB78C0169830E948104698170E0F8012F
:1009600082810E941B0360E0F80184810E94E701FC
:1009700060E0F80185810E94E701C8010E947204CD
:1009800060E070E0F80182810F90DF91CF911F91BC
:100990000F910C941B03CF93DF93EC0161E08D81E9
:1009A0000E946F0261E08C810E946F0261E08B8186
:1009B0000E946F0285EA9EE00197F1F700C00000F7
:1009C00061E0CE010E94A20483EF91E00197F1F76C
:1009D00000C0000068E3CE010E94A20490E19A9555
:1009E000F1F700C06CE0CE010E94A20480E18A957C
:1009F000F1F700C0DF91CF9108950F93CF93DF936C
:100A0000EC0188E890E09983888388E0E0E7F0E0F3
:100A1000DE01169601900D928A95E1F76A834D8367
:100A20002C830B83CE01DF91CF910F910C94CB04DB
:100A300061E00E94A20483EF91E00197F1F700C00A
:100A4000000008956058FA013396EE0FFF1FE80F7B
:100A5000F91F2081620F0C94A2040F931F93CF9370
:100A6000DF931F92CDB7DEB78C0169830E948104AA
:100A7000698170E0F80182810E941B0360E0F80147
:100A800084810E94E70161E0F80185810E94E7010D
:100A9000C8010E94720460E070E0F80182810F904A
:100AA000DF91CF911F910F910C941B030F931F9314
:100AB000CF93DF938C01EB016991662321F0C8018C
:100AC0000E942D05F9CFDF91CF911F910F910895CD
:100AD0000F931F93CF93DF93EC0189010E942205AE
:100AE000B801CE01DF91CF911F910F910C94560563
:100AF000CF92DF92EF92FF920F931F93CF93DF93EA
:100B0000CDB7DEB760970FB6F894DEBF0FBECDBF8E
:100B10008C017B016A01C9014AE0BE016F5F7F4F12
:100B20000E94460A9E012F5F3F4FA601B701C801F0
:100B30000E94680560960FB6F894DEBF0FBECDBF69
:100B4000DF91CF911F910F91FF90EF90DF90CF90A9
:100B50000895FC012181211106C021E021830E941A
:100B6000530081E0089580E008950F931F93CF9381
:100B70008B01FC013196059660E070E05AE04191EE
:100B8000569F9001579F300D1124B901640F711DBC
:100B900060537109E817F90791F7C8010E944900ED
:100BA000C82F882341F0F801C181CC2321F01182A4
:100BB000C8010E9453008C2FCF911F910F9108956F
:100BC0000F931F93CF93DF938B01EC012196FC01D0
:100BD0003596A0E0B0E03AE029913A9FB0013B9F02
:100BE000700D1124DB01A20FB11DD097CE17DF07C6
:100BF00099F79C01275F3F4F40E050E09AE08191D8
:100C0000949FE001959FD00D1124AE01480F511D16
:100C100040535109E217F30791F7BD01C801DF9175
:100C2000CF911F910F910C94A900FC01228130E01B
:100C3000205331098181813331F42330310578F437
:100C4000FB01228307C0823351F42630310538F48A
:100C5000FB012383CB010E94530081E0089580E0D3
:100C60000895CF92DF92EF92FF920F931F93CF934D
:100C7000DF938C01EB017A01FC01218D328D21156E
:100C8000310509F5FA018181882319F02AE830E05D
:100C900002C02CEA30E040E050E060E070E0CE01BD
:100CA0000E9468052BE930E041E050E060E070E030
:100CB000CE01DF91CF911F910F91FF90EF90DF90C8
:100CC000CF900C946805FC018081813409F069C0E3
:100CD000CB010E941805C7010E94A905882319F0BD
:100CE0002DEB30E009C0F7018181882319F02EEC4B
:100CF00030E002C02FED30E040E050E060E070E016
:100D0000CE010E946805F7018381811103C020EFA5
:100D100030E018C0813019F421E031E013C0823096
:100D200019F422E131E00EC0833019F423E231E0FE
:100D300009C0843019F424E331E004C0853049F45B
:100D400025E431E041E050E062E070E0CE010E9435
:100D50006805FFE926E881E0F15020408040E1F796
:100D600000C00000F7018281813019F426E531E0EE
:100D700004C0823039F427E631E041E050E062E01F
:100D800070E0AFC0882391F3C8010E942E01FFE7F5
:100D90002AE186E0F15020408040E1F700C00000E9
:100DA0009CC18234C1F528E731E040E050E060E0CA
:100DB00070E0CE010E946805CC24C394D12CF801C8
:100DC000818D928DC816D90674F4B601665F7F4F87
:100DD0002FEC31E040E050E0CE010E9468059FEF2B
:100DE000C91AD90AECCF05970CF482C1B701C80122
:100DF0000E94B505882319F024E831E006C0F70108
:100E00008181811105C025E931E041E050E067C0F2
:100E100026EA31E0FACF833409F067C02530310586
:100E20000CF527EB31E040E050E060E070E0CE01EF
:100E30000E946805EE24E394F12CF801818D928DD7
:100E4000E816F9060CF054C1B701675F7F4F2FEC2D
:100E500031E040E050E0CE010E946805FFEFEF1A5C
:100E6000FF0AEBCF2930310554F522EC31E040E0A8
:100E700050E060E070E0CE010E94680521ED31E0B5
:100E800041E050E060E070E0CE010E94680585E03E
:100E9000E82EF12CF801818D928DE816F9060CF000
:100EA00027C1B7016B5F7F4F2FEC31E041E050E08D
:100EB000CE010E946805FFEFEF1AFF0AEBCFCB01CE
:100EC0000E941805B701C8010E94E005882319F0A7
:100ED0002CED31E002C02DEE31E040E050E060E06A
:100EE00070E0CE010E9468054FCF843409F0DDC068
:100EF0002EEF31E040E050E060E070E0CE010E9473
:100F00006805F801818D928D029759F5218130E0B5
:100F100040E050E06EE070E0CE010E947805F801FC
:100F20008181813319F42CE032E004C0823351F422
:100F300029E132E041E050E062E070E0CE010E9441
:100F400068050FC0CE010E94180527E232E041E09B
:100F500050E060E070E0CE010E946805C8010E9488
:100F60002E01F801818D928D03970CF4C1C022816E
:100F700030E040E050E06FE070E0CE010E94780584
:100F8000B701C8010E941506882309F478C0F8014A
:100F90008181813339F5F7018281813049F427E37A
:100FA00032E041E050E060E070E0CE010E94680570
:100FB000F7018281823049F428E432E041E050E0D8
:100FC00060E070E0CE010E946805F7018281811126
:100FD00009C029E532E041E050E060E070E0CE0178
:100FE0000E946805F8018181823309F051C0F70140
:100FF0008381811109C02AE632E041E050E060E0DF
:1010000070E0CE010E946805F7018381813049F4C8
:101010002BE732E041E050E060E070E0CE010E945A
:101020006805F7018381823049F42CE832E041E021
:1010300050E060E070E0CE010E946805F701838116
:10104000833049F42CE932E041E050E060E070E0A8
:10105000CE010E946805F7018381843049F42CEAAF
:1010600032E041E050E060E070E0CE010E946805AF
:10107000F7018381853061F42DEB32E002C02EEC64
:1010800032E041E050E060E070E0CE010E9468058F
:10109000C8010E942E01FFE72AE186E0F1502040BE
:1010A0008040E1F700C0000023C0CB010E9418057A
:1010B0002FED32E040E050E060E070E0CE010E94B1
:1010C00068059FE7EAE1F6E09150E040F040E1F783
:1010D00000C00000C8010E942E01CE01DF91CF9117
:1010E0001F910F91FF90EF90DF90CF900C94180517
:1010F000DF91CF911F910F91FF90EF90DF90CF90F4
:101100000895CF93DF93CDB7DEB7CB55D1090FB696
:10111000F894DEBF0FBECDBF6DE1CE01885A9F4F60
:101120000E947803CE01885A9F4F0E9481030AE1F2
:101130002BE14CE168E0CE018F5B9F4F0E94FD04E4
:1011400060E1CE018E960E949C03CE0101960E9422
:101150003C01CE01815B9F4F0E94FD00BE01625D9C
:101160007F4FCE0101960E946901AE01415B5F4F46
:10117000BE016F5B7F4FCE0101960E943106EECF1C
:101180005058BB27AA270E94D8080C94DF090E9458
:10119000D10938F00E94D80920F039F49F3F19F4A2
:1011A00026F40C94CE090EF4E095E7FB0C94C809E4
:1011B000E92F0E94F00958F3BA17620773078407F2
:1011C000950720F079F4A6F50C94120A0EF4E09538
:1011D0000B2EBA2FA02D0B01B90190010C01CA01F1
:1011E000A0011124FF27591B99F0593F50F4503E9C
:1011F00068F11A16F040A22F232F342F4427585F8E
:10120000F3CF469537952795A795F0405395C9F7A5
:101210007EF41F16BA0B620B730B840BBAF091505D
:10122000A1F0FF0FBB1F661F771F881FC2F70EC0FC
:10123000BA0F621F731F841F48F4879577956795CF
:10124000B795F7959E3F08F0B0CF9395880F08F0BB
:101250009927EE0F9795879508950E94A40908F4A1
:1012600081E008950E9446090C94DF090E94D80984
:1012700058F00E94D10940F029F45F3F29F00C9406
:10128000C80951110C94130A0C94CE090E94F0095C
:1012900068F39923B1F3552391F3951B550BBB27A5
:1012A000AA2762177307840738F09F5F5F4F220FEA
:1012B000331F441FAA1FA9F335D00E2E3AF0E0E8E1
:1012C00032D091505040E695001CCAF72BD0FE2F2B
:1012D00029D0660F771F881FBB1F261737074807BF
:1012E000AB07B0E809F0BB0B802DBF01FF27935877
:1012F0005F4F3AF09E3F510578F00C94C8090C946A
:10130000130A5F3FE4F3983ED4F38695779567958B
:10131000B795F7959F5FC9F7880F911D96958795AB
:1013200097F90895E1E0660F771F881FBB1F6217CA
:1013300073078407BA0720F0621B730B840BBA0B88
:10134000EE1F88F7E0950895990F0008550FAA0B36
:10135000E0E8FEEF16161706E807F907C0F01216C8
:101360001306E407F50798F0621B730B840B950BCB
:1013700039F40A2661F0232B242B252B21F4089520
:101380000A2609F4A140A6958FEF811D811D0895BD
:1013900097F99F6780E870E060E008959FEF80EC28
:1013A000089500240A9416161706180609060895CB
:1013B00000240A9412161306140605060895092E31
:1013C0000394000C11F4882352F0BB0F40F4BF2BA0
:1013D00011F460FF04C06F5F7F4F8F4F9F4F0895E0
:1013E00057FD9058440F551F59F05F3F71F04795D6
:1013F000880F97FB991F61F09F3F79F087950895BB
:10140000121613061406551FF2CF4695F1DF08C0D9
:10141000161617061806991FF1CF869571056105F6
:1014200008940895E894BB2766277727CB0197F99E
:1014300008950E94A40908F48FEF089597FB072EE2
:1014400016F4009407D077FD09D00E94320A07FCF9
:1014500005D03EF4909581959F4F089570956195C4
:101460007F4F0895AA1BBB1B51E107C0AA1FBB1FDA
:10147000A617B70710F0A61BB70B881F991F5A9520
:10148000A9F780959095BC01CD010895BB274A30FE
:1014900031F4992322F4BDE2909581959F4F0C94ED
:1014A000520ABB27FB015527AA27880F991FAA1F9D
:1014B000A41710F0A41B83955051B9F7A05DAA336F
:1014C00008F0A95DA193009779F7B111B19311923A
:1014D000CB010C946B0ADC01FC01672F719177231F
:1014E000E1F7329704C07C916D9370836291AE17DF
:0A14F000BF07C8F30895F894FFCF7A
:1014FA003132334134353642373839432A3023447E
:10150A000000400014005400000000006B030000BB
:10151A0000008D0300000000CB0453616665203A89
:10152A0029202020202020202020002020202020C8
:10153A0020202020202020202020200044697361C0
:10154A00726D656421202020202020200041726DC8
:10155A006564204465766963652E20202000416C0D
:10156A0072656164792041726D65642E20200045A0
:10157A0072726F7220696E2041726D696E67210006
:10158A00547261696E204D6F64652E2020202020E0
:10159A0000427573204D6F64652E20202020202084
:1015AA002000416972706C616E65204D6F64652E12
:1015BA0020200054617869204D6F64652E20202018
:1015CA002020200057616C6B204D6F64652E20200F
:1015DA00202020200053746174696F6E206D6F643F
:1015EA00652E20202000416C61726D206F6E2E20C6
:1015FA00202020202020004C6F63616C20416C6108
:10160A00726D206F6E2E20005061737320636F64B9
:10161A00653A200044697361726D65642064657679
:10162A006963652E00416C7265616479204469734F
:10163A0061726D65640050617373436F646520491C
:10164A006E76616C6964004F6C6420636F64653AFE
:10165A0020004F6C6420636F64653A202A2A2A2A84
:10166A00004E657720636F64653A20004368616EB7
:10167A006765642050617373436F646500496E76D1
:10168A00616C6964204F6C64436F64652E004D651C
:10169A006E752043686F6963653A20002D20416C9E
:1016AA0061726D204D6F6465002D205472617665FC
:1016BA006C204D6F6465004E6F2053756368204F30
:1016CA007074696F6E2E00416C61726D204F6E2EC0
:1016DA0020202020202020004C6F63616C20616C48
:1016EA0061726D206F6E2E2000416C61726D204F09
:1016FA0066662E20202020202000547261696E2008
:10170A006D6F6465206F6E2E202000427573206D08
:10171A006F6465206F6E2E2020202000506C616E51
:10172A0065206D6F6465206F6E2E200054617869A4
:10173A00206D6F6465206F6E2E20200057616C6BE0
:10174A00206D6F6465206F6E2E2020200053746117
:10175A0074696F6E206D6F6465206F6E2E00496E1E
:10176A0076616C69642043686F6963652E2000495D
:0E177A006E76616C696420496E7075740000B3
:00000001FF
