:100000000C942C000C9454000C9454000C94540048
:100010000C9454000C9454000C9454000C94540010
:100020000C9454000C9454000C9454000C94540000
:100030000C9454000C9454000C9454000C945400F0
:100040000C9454000C9454000C9454000C945400E0
:100050000C945400B401B90111241FBECFE5D8E0BF
:10006000DEBFCDBF10E0A0E6B0E0E0EAF3E002C002
:1000700005900D92A636B107D9F720E0A6E6B0E0CC
:1000800001C01D92AA36B207E1F710E0CBE2D0E042
:1000900004C02197FE010E94BD01CA32D107C9F7F1
:1000A0000E94A5010C94C3010C940000662309F47E
:1000B0003FC0883060F44BB321E030E0B90102C0AA
:1000C000660F771F8A95E2F7CB01842B3FC098EF2C
:1000D000980F983060F448B321E030E0B90102C0D5
:1000E000660F771F9A95E2F7CB01842B41C090EF02
:1000F000980F983060F445B321E030E0B90102C0B8
:10010000660F771F9A95E2F7CB01842B43C098EED8
:10011000980F983008F051C042B321E030E0B901A7
:1001200002C0660F771F9A95E2F7CB01842B44C07B
:10013000883070F44BB321E030E0B90102C0660FA3
:10014000771F8A95E2F7CB01809584238BBB0895B6
:1001500098EF980F983070F448B321E030E0B9017F
:1001600002C0660F771F9A95E2F7CB018095842332
:1001700088BB089590EF980F983070F445B321E054
:1001800030E0B90102C0660F771F9A95E2F7CB0104
:100190008095842385BB089598EE980F983068F475
:1001A00042B321E030E0B90102C0660F771F9A9593
:1001B000E2F7CB018095842382BB0895662309F47E
:1001C0003FC0883060F44AB321E030E0B90102C09A
:1001D000660F771F8A95E2F7CB01842B3FC098EF1B
:1001E000980F983060F447B321E030E0B90102C0C5
:1001F000660F771F9A95E2F7CB01842B41C090EFF1
:10020000980F983060F444B321E030E0B90102C0A7
:10021000660F771F9A95E2F7CB01842B43C098EEC7
:10022000980F983008F051C041B321E030E0B90197
:1002300002C0660F771F9A95E2F7CB01842B44C06A
:10024000883070F44AB321E030E0B90102C0660F93
:10025000771F8A95E2F7CB01809584238ABB0895A6
:1002600098EF980F983070F447B321E030E0B9016F
:1002700002C0660F771F9A95E2F7CB018095842321
:1002800087BB089590EF980F983070F444B321E045
:1002900030E0B90102C0660F771F9A95E2F7CB01F3
:1002A0008095842384BB089598EE980F983068F465
:1002B00041B321E030E0B90102C0660F771F9A9583
:1002C000E2F7CB018095842381BB0895CF93DF9320
:1002D000EC0161E08B810E94DE0060E08B81DF91A8
:1002E000CF910C94560024E630E0FC01318320834A
:1002F000638312820C9466010895CF93DF93EC011F
:1003000061E08B810E94560081E08A83DF91CF916A
:100310000895CF93DF93EC0160E08B810E9456003B
:100320001A82DF91CF910895CF93DF93EC018A81F8
:10033000811104C0CE010E947D0103C0CE010E9444
:1003400089018A81DF91CF91089586E690E00E942D
:100350007D0186E690E00E94940187EA91E601978C
:10036000F1F700C00000F5CF68E186E690E00C945C
:10037000730186E690E00C947C01EE0FFF1F059060
:10038000F491E02D099410E0CBE2D0E004C0FE012E
:100390000E94BD012196CC32D107C9F7F894FFCF56
:0603A000000000006601F0
:00000001FF
