S01D00004D6963726F636F6E74726F6C6C657253797374656D2E7372656344
S11300000C942A000C943F000C943F000C943F0085
S11300100C943F000C943F000C943F000C943F0060
S11300200C943F000C943F000C943F000C943F0050
S11300300C943F000C943F000C943F000C943F0040
S11300400C9441000C943F000C943F000C943F002E
S11300500C943F0011241FBECFE5D8E0DEBFCDBF16
S113006010E0A0E6B0E0E2E8FBE002C005900D92EB
S1130070A439B107D9F70E94B4030C94BF050C94BA
S113008000001F920F920FB60F921124369A0F9010
S11300900FBE0F901F901895442361F1811109C080
S11300A02BB381E090E001C0880F6A95EAF7822BB8
S11300B02CC0813049F428B381E090E001C0880F5E
S11300C06A95EAF7822B2EC0823049F425B381E089
S11300D090E001C0880F6A95EAF7822B30C0833024
S11300E0E1F522B381E090E001C0880F6A95EAF758
S11300F0822B32C081110BC02BB381E090E001C090
S1130100880F6A95EAF7809582238BBB0895813026
S113011059F428B381E090E001C0880F6A95EAF7AA
S11301208095822388BB0895823059F425B381E0F9
S113013090E001C0880F6A95EAF78095822385BB19
S11301400895833051F422B381E090E001C0880F18
S11301506A95EAF78095822382BB0895442361F16E
S1130160811109C02AB381E090E001C0880F6A952B
S1130170EAF7822B2CC0813049F427B381E090E068
S113018001C0880F6A95EAF7822B2EC0823049F4A9
S113019024B381E090E001C0880F6A95EAF7822BCE
S11301A030C08330E1F521B381E090E001C0880FD5
S11301B06A95EAF7822B32C081110BC02AB381E021
S11301C090E001C0880F6A95EAF7809582238ABB84
S11301D00895813059F427B381E090E001C0880F7D
S11301E06A95EAF78095822387BB0895823059F493
S11301F024B381E090E001C0880F6A95EAF7809506
S1130200822384BB0895833051F421B381E090E0CC
S113021001C0880F6A95EAF78095822381BB08950F
S1130220811102C06BBB0895813011F468BB08953D
S1130230823011F465BB0895833009F462BB0895DC
S1130240811102C06ABB0895813011F467BB08951F
S1130250823011F464BB0895833009F461BB0895BE
S1130260813049F030F0823041F0833079F480B34A
S113027005C089B303C086B301C083B390E002C054
S1130280959587956A95E2F78170089580E00895C1
S1130290CF93DF93EC0141E06C818B810E94AE002F
S11302A040E06C818B81DF91CF910C944C002CE663
S11302B030E0FC01318320836383448312820C94F5
S11302C04801CF93DF93EC0141E06C818B810E9464
S11302D04C0081E08A83DF91CF910895CF93DF931F
S11302E0EC0140E06C818B810E944C001A82DF910A
S11302F0CF910895CF93DF93EC018A81811104C0DB
S1130300CE010E94610103C0CE010E946E018A8168
S1130310DF91CF910895CF93DF93EC0141E06C819D
S11303208B810E944C000000000040E06C818B81B6
S1130330DF91CF910C944C00CF93DF93EC0160E0FC
S113034070E08A810E94200141E06D818B810E94CE
S11303504C0040E06E818B810E944C0067E08A81F2
S11303600E943001811104C0CE010E948B01F6CF9E
S11303706FEF70E08A81DF91CF910C9420010F938D
S11303801F93CF93DF931F92CDB7DEB78C016983A0
S11303900E949C01698170E0F80182810E94100131
S11303A040E0F801658183810E944C0040E0F8013F
S11303B0668183810E944C00C8010E948B0160E029
S11303C070E0F80182810F90DF91CF911F910F911E
S11303D00C941001CF93DF93EC0141E06E818B818B
S11303E00E94AE0041E06D818B810E94AE0041E02D
S11303F06C818B810E94AE0085EA9EE00197F1F743
S113040000C0000061E0CE010E94BF0183EF91E0D3
S11304100197F1F700C0000068E3CE010E94BF011C
S113042090E19A95F1F700C06CE0CE010E94BF0103
S113043080E18A95F1F700C0DF91CF910895EF92A2
S11304400F93CF93DF93EC0182E790E09983888345
S113045088E0E0E6F0E0DE01179601900D928A95BF
S1130460E1F76A834B832E830D83EC82CE01DF9107
S1130470CF910F91EF900C94EA016058FA01EE0FBE
S1130480FF1FE80FF91F2781620F0C94BF0161E081
S11304900E94BF0183EF91E00197F1F700C00000D3
S11304A008950F931F93CF93DF931F92CDB7DEB7B9
S11304B08C0169830E949C01698170E0F80182814A
S11304C00E94100140E0F801658183810E944C0084
S11304D041E0F801668183810E944C00C8010E94BA
S11304E08B0160E070E0F80182810F90DF91CF9181
S11304F01F910F910C9410010F931F93CF93DF93CF
S11305008C01EB016991662321F0C8010E9451021C
S1130510F9CFDF91CF911F910F9108950F931F93FE
S1130520CF93DF93EC0189010E943D02B801CE0113
S1130530DF91CF911F910F910C947C024F925F92A7
S11305406F927F928F929F92AF92BF92CF92DF92DF
S1130550EF92FF920F931F93CF93DF93CDB7DEB744
S11305607C014B013A01C901ADB6BEB62DB73EB709
S1130570201B310B0FB6F8943EBF0FBE2DBF2F5F6B
S11305803F4F69014AE0B9010E948A05412C512C70
S1130590401651064CF461E970E0C7010E947C02E8
S11305A03FEF431A530AF4CF9601A301B401C701E4
S11305B00E948E020FB6F894BEBE0FBEADBEDF9190
S11305C0CF911F910F91FF90EF90DF90CF90BF904C
S11305D0AF909F908F907F906F905F904F90089511
S11305E0CF93DF93EC0140E06C818B810E94AE00DD
S11305F04E816C818B810E944C001A82DF91CF91D5
S113060008950F93FC0188E790E0918380836383CE
S1130610448325830683CF010F910C94F002FC01DF
S113062086816481882331F083810E94300191E0C6
S11306308927089583810C9430014F925F926F92C1
S11306407F928F929F92AF92BF92CF92DF92EF925E
S1130650FF920F931F93CF938C01812C912C540103
S113066075016401C0E0C8010E940F03882351F0A2
S113067020E030E040E85FE3C501B4010E942D04AE
S11306804B015C0120E030E048E452E4C701B601CC
S11306900E94850518160CF5A7019601C501B40141
S11306A00E949E042B013C0126E636E646E65FE303
S11306B00E94850518160CF43FC0A301920160E066
S11306C070E080E89FE30E942C0426E636E646E6C6
S11306D05FE30E94850518168CF120E03CE34CE1B1
S11306E056E4C701B6010E949904811112C020E0AA
S11306F03CE34CE156E4C501B4010E949E04C1E010
S113070020E030E040E05FE30E94850518160CF01D
S1130710C0E020E030E040E85FE3C701B6010E949A
S11307202D046B017C0120E030E44CE156E40E948E
S1130730990487FD98CF03C0C1E001C0C0E0F8016F
S11307408281C813C2838C2FCF911F910F91FF9088
S1130750EF90DF90CF90BF90AF909F908F907F905D
S11307606F905F904F900895CF93DF93CDB7DEB72E
S11307706B970FB6F894DEBF0FBECDBF46E062E0C4
S1130780CE0147960E94570101E021E040E060E07D
S1130790CE0140960E94010385E0E82E07E022E0A6
S11307A043E061E0CE0101960E941F02CE0147960C
S11307B00E9461012AE730E040E050E060E070E030
S11307C0CE0101960E948E0205E010E02DE135E095
S11307D041E050E067E070E0CE0101960E949E0285
S11307E02FE382E49FE0215080409040E1F700C075
S11307F00000CE0101960E9447026BE870E0CE0132
S113080001960E947C02E12CF12C2FEFE21AF20AED
S113081005E010E0970140E050E067E070E0CE01B1
S113082001960E949E02CE0147960E947A01CE0153
S113083040960E941D03882329F087EA91E60197D8
S1130840F1F707C09FE32DE083E091502040804002
S1130850E1F700C00000D9CF5058BB27AA270E9457
S113086044040C944B050E943D0538F00E94440555
S113087020F039F49F3F19F426F40C943A050EF451
S1130880E095E7FB0C943405E92F0E945C0558F3CE
S1130890BA17620773078407950720F079F4A6F561
S11308A00C947E050EF4E0950B2EBA2FA02D0B01AF
S11308B0B90190010C01CA01A0011124FF27591BA1
S11308C099F0593F50F4503E68F11A16F040A22FA7
S11308D0232F342F4427585FF3CF46953795279518
S11308E0A795F0405395C9F77EF41F16BA0B620B17
S11308F0730B840BBAF09150A1F0FF0FBB1F661F5E
S1130900771F881FC2F70EC0BA0F621F731F841FA0
S113091048F4879577956795B795F7959E3F08F0C6
S1130920B0CF9395880F08F09927EE0F9795879588
S113093008950E94100508F481E008950E94B2040D
S11309400C944B050E94440558F00E943D0540F06C
S113095029F45F3F29F00C94340551110C947F0560
S11309600C943A050E945C0568F39923B1F355236E
S113097091F3951B550BBB27AA27621773078407AE
S113098038F09F5F5F4F220F331F441FAA1FA9F344
S113099035D00E2E3AF0E0E832D091505040E69532
S11309A0001CCAF72BD0FE2F29D0660F771F881F93
S11309B0BB1F261737074807AB07B0E809F0BB0B86
S11309C0802DBF01FF2793585F4F3AF09E3F51059A
S11309D078F00C9434050C947F055F3FE4F3983E63
S11309E0D4F3869577956795B795F7959F5FC9F783
S11309F0880F911D9695879597F90895E1E0660F04
S1130A00771F881FBB1F621773078407BA0720F07C
S1130A10621B730B840BBA0BEE1F88F7E0950895E5
S1130A20990F0008550FAA0BE0E8FEEF16161706FB
S1130A30E807F907C0F012161306E407F50798F063
S1130A40621B730B840B950B39F40A2661F0232B7C
S1130A50242B252B21F408950A2609F4A140A695F8
S1130A608FEF811D811D089597F99F6780E870E0DD
S1130A7060E008959FEF80EC089500240A94161610
S1130A80170618060906089500240A941216130678
S1130A90140605060895092E0394000C11F4882306
S1130AA052F0BB0F40F4BF2B11F460FF04C06F5F22
S1130AB07F4F8F4F9F4F089557FD9058440F551FF8
S1130AC059F05F3F71F04795880F97FB991F61F0CC
S1130AD09F3F79F087950895121613061406551F43
S1130AE0F2CF4695F1DF08C0161617061806991FAF
S1130AF0F1CF86957105610508940895E894BB27A4
S1130B0066277727CB0197F908950E94100508F40A
S1130B108FEF0895BB274A3031F4992322F4BDE2C4
S1130B20909581959F4F0C949605BB27FB01552703
S1130B30AA27880F991FAA1FA41710F0A41B839536
S1130B405051B9F7A05DAA3308F0A95DA1930097AD
S1130B5079F7B111B1931192CB010C94AF05DC017B
S1130B60FC01672F71917723E1F7329704C07C91E0
S1130B706D9370836291AE17BF07C8F30895F8941C
S1050B80FFCFA1
S1130B82000040001400540000000000480100006E
S1130B920000EA0100000000F00248656C6C6F205E
S1130BA24672616D65776F726B210056616C756573
S1070BB23A200000E1
S9030000FC
