S01D00004D6963726F636F6E74726F6C6C657253797374656D2E7372656344
S11300000C942A000C9447000C9447000C9447006D
S11300100C9447000C9447000C9447000C94470040
S11300200C9447000C9447000C9447000C94470030
S11300300C9447000C9447000C9447000C94470020
S11300400C94EE040C9447000C9447000C94470065
S11300500C94470011241FBECFE5D8E0DEBFCDBF0E
S113006011E0A0E6B0E0ECE4F0E102C005900D92EE
S1130070A434B107D9F721E0A4E4B1E001C01D9292
S1130080A835B207E1F70E9467060C9424080C9483
S11300900000FC019C01275E3F4F40E24193E217C0
S11300A0F307E1F7FC011082128E118E0895CF93AD
S11300B0DF93EC011A8E198E80E1E0E6F0E0DE01B8
S11300C05B9601900D928A95E1F7CE010E9449005A
S11300D084E690E09CA78BA7DF91CF910895FC0163
S11300E0218D328D2931310511F40C944900FC0124
S11300F0E20FF31F60832F5F3F4FFC01328F218F8C
S1130100E20FF31F10820895AF92BF92CF92DF9255
S1130110EF92FF920F931F93CF93DF93CDB7DEB788
S113012060970FB6F894DEBF0FBECDBF8C01CE0131
S113013001960E94A803D8019B96EC919B979C96EC
S11301404C918E2F942F64E070E00E94FC072E2FB8
S1130150342F37FF02C02D5F3F4F2C7F280F391FEC
S1130160E1E0F0E0EC0FFD1FE20FF31F808181114D
S113017005C084E690E0F80194A783A7C12CD12C94
S1130180A12CB12C7501EC0CFD1CE1E0F0E0EC0FAE
S1130190FD1FEE0DFF1D8081882341F0D8019B9641
S11301A08D919C919C978E159F05F9F4BFEFAB1A26
S11301B0BB0AE4E0AE16B10429F7F4E0CF0ED11C7B
S11301C080E1C816D104E1F660960FB6F894DEBF5C
S11301D00FBECDBFDF91CF911F910F91FF90EF9094
S11301E0DF90CF90BF90AF900895F801EE0DFF1D02
S11301F0638DC8010E946F00D8019C96FC92EE9218
S11302009B97D4CF27B1207E27B927B1FC018481E5
S1130210822B87B9089527B12F7130E0FC01448106
S113022050E081E02417350709F080E00895DC01EF
S1130230ED91FC910190F081E02D0995369A089595
S113024036980895CF93DF93EC018CE790E099837F
S11302508883CE010E940B01882341F087B1807E00
S113026087B9CE01DF91CF910C942001DF91CF911A
S11302700895CF93DF93CDB7DEB727970FB6F894E1
S1130280DEBF0FBECDBF24B145B130E0342BDC015D
S113029013963C932E9312971596ED91FC91169715
S11302A0309791F04CE750E05A8349833C832B8389
S11302B014968C918D83FF83EE83CE01019609956C
S11302C0CE0101960E94220127960FB6F894DEBF54
S11302D00FBECDBFDF91CF910895662309F43FC0CF
S11302E0883060F44BB321E030E0B90102C0660FFE
S11302F0771F8A95E2F7CB01842B3FC098EF980FC4
S1130300983060F448B321E030E0B90102C0660FD0
S1130310771F9A95E2F7CB01842B41C090EF980F99
S1130320983060F445B321E030E0B90102C0660FB3
S1130330771F9A95E2F7CB01842B43C098EE980F70
S1130340983008F051C042B321E030E0B90102C056
S1130350660F771F9A95E2F7CB01842B44C088304F
S113036070F44BB321E030E0B90102C0660F771F8F
S11303708A95E2F7CB01809584238BBB089598EF8F
S1130380980F983070F448B321E030E0B90102C00E
S1130390660F771F9A95E2F7CB018095842388BB7B
S11303A0089590EF980F983070F445B321E030E051
S11303B0B90102C0660F771F9A95E2F7CB018095C9
S11303C0842385BB089598EE980F983068F442B35F
S11303D021E030E0B90102C0660F771F9A95E2F779
S11303E0CB018095842382BB0895662309F43FC022
S11303F0883060F44AB321E030E0B90102C0660FEE
S1130400771F8A95E2F7CB01842B3FC098EF980FB2
S1130410983060F447B321E030E0B90102C0660FC0
S1130420771F9A95E2F7CB01842B41C090EF980F88
S1130430983060F444B321E030E0B90102C0660FA3
S1130440771F9A95E2F7CB01842B43C098EE980F5F
S1130450983008F051C041B321E030E0B90102C046
S1130460660F771F9A95E2F7CB01842B44C088303E
S113047070F44AB321E030E0B90102C0660F771F7F
S11304808A95E2F7CB01809584238ABB089598EF7F
S1130490980F983070F447B321E030E0B90102C0FE
S11304A0660F771F9A95E2F7CB018095842387BB6B
S11304B0089590EF980F983070F444B321E030E041
S11304C0B90102C0660F771F9A95E2F7CB018095B8
S11304D0842384BB089598EE980F983068F441B350
S11304E021E030E0B90102C0660F771F9A95E2F768
S11304F0CB018095842381BB0895482F883020F454
S113050099B3892F90E014C088EF840F883010F4D9
S113051026B30BC080EF840F883010F423B305C0DA
S113052088EE840F883058F420B330E0482FC90196
S113053002C0959587954A95E2F78170089580E009
S11305400895883059F018F4882331F008958031E3
S113055039F0883139F008956BBB089568BB08956C
S113056065BB089562BB0895883059F018F4882358
S113057031F00895803139F0883139F008956ABB3B
S1130580089567BB089564BB089561BB08958830DE
S113059059F020F4811113C089B309C0803131F0BE
S11305A0883169F480B303C086B301C083B390E09B
S11305B002C0959587956A95E2F78170089580E069
S11305C00895CF93DF93EC0161E08B810E94F501E4
S11305D060E08B81DF91CF910C946D0122E830E0D3
S11305E0FC0131832083638312820C94E102CF9354
S11305F0DF93EC0161E08B810E946D0181E08A83CD
S1130600DF91CF910895CF93DF93EC016FE070E019
S11306108A810E94B4026FEF70E08A81DF91CF91EA
S11306200C94A10228E830E0FC013183208362832A
S11306300C9403034F925F926F927F928F929F92DA
S1130640AF92BF92CF92DF92EF92FF921F93CF931C
S1130650DF93182FC4E6D0E0812C912C540175014E
S11306606401812F0E947D0281110AC020E030E0E4
S113067040E85FE3C501B4010E949F064B015C01A1
S113068020E030E040E450E4C701B6010E94F707DF
S1130690181604F5A7019601C501B4010E941007BC
S11306A02B013C0123E333E343E35FE30E94F707B9
S11306B087FF3AC0A301920160E070E080E89FE305
S11306C00E949E0623E333E343E35FE30E94F707BC
S11306D087FF2CC020E030E046EC52E4C701B601AD
S11306E00E940B07811112C020E030E046EC52E476
S11306F0C501B4010E941007C1E020E030E040E0F1
S11307005FE30E94F707181694F010C020E030E071
S113071040E85FE3C701B6010E949F066B017C01BC
S1130720219709F09ECF02C0C1E001C0C0E08C2F28
S1130730DF91CF911F91FF90EF90DF90CF90BF900A
S1130740AF909F908F907F906F905F904F9008959F
S1130750BF92CF92DF92EF92FF920F931F93CF93AA
S1130760DF93B82ED92F6B01082F192FC0E0F601A3
S1130770828160E08C0F0E946D01E12CF12CF60166
S1130780228184E0820F8E0D0E941A03F801EE0D7F
S1130790FF1D8083FFEFEF1AFF0A84E0E816F104DF
S11307A071F7F601828161E08C0F0E946D01CF5FC9
S11307B00C5F1F4FC430D9F68B2D9D2FDF91CF9145
S11307C01F910F91FF90EF90DF90CF90BF9008950D
S11307D0CF93DF93EC0161E08B810E946D010000F7
S11307E0000060E08B81DF91CF910C946D01CF9379
S11307F0DF93EC0160E070E08A810E94B40261E062
S11308008C810E946D0160E08D810E946D0167E022
S11308108A810E94C702811104C0CE010E94E803AC
S1130820F6CF6FEF70E08A81DF91CF910C94B40220
S11308300F931F93CF93DF931F92CDB7DEB78C0135
S113084069830E94F703698170E0F80182810E9444
S1130850A10260E0F80184810E946D0160E0F8016A
S113086085810E946D01C8010E94E80360E070E088
S1130870F80182810F90DF91CF911F910F910C9419
S1130880A102CF93DF93EC0161E08D810E94F50119
S113089061E08C810E94F50161E08B810E94F50189
S11308A085EA9EE00197F1F700C0000061E0CE0107
S11308B00E94180483EF91E00197F1F700C0000053
S11308C068E3CE010E94180490E19A95F1F700C004
S11308D06CE0CE010E94180480E18A95F1F700C013
S11308E0DF91CF9108950F93CF93DF93EC018EE8BE
S11308F090E09983888388E0E0E7F0E0DE011696D3
S113090001900D928A95E1F76A834D832C830B83C2
S1130910CE01DF91CF910F910C94410461E00E94CC
S1130920180483EF91E00197F1F700C000000895E7
S11309306058FA013396EE0FFF1FE80FF91F20816C
S1130940620F0C9418040F931F93CF93DF931F929D
S1130950CDB7DEB78C0169830E94F703698170E02B
S1130960F80182810E94A10260E0F80184810E9462
S11309706D0161E0F80185810E946D01C8010E944A
S1130980E80360E070E0F80182810F90DF91CF917D
S11309901F910F910C94A1020F931F93CF93DF9398
S11309A08C01EB016991662321F0C8010E94A30424
S11309B0F9CFDF91CF911F910F9108950F931F935A
S11309C0CF93DF93EC0189010E949804B801CE0112
S11309D0DF91CF911F910F910C94CC041F920F9231
S11309E00FB60F9211242F933F934F935F936F93FE
S11309F07F938F939F93AF93BF93EF93FF93209134
S1130A004401309145014091460150914701C9018B
S1130A100197880F991FFC01E85BFE4F808191814B
S1130A202417350769F40E94390181E090E090931E
S1130A30450180934401809148019091490114C07B
S1130A400E94390180914401909145019C012F5FDE
S1130A503F4F3093450120934401880F991FFC01B7
S1130A60E85BFE4F808191810E941701FF91EF9115
S1130A70BF91AF919F918F917F916F915F914F91B2
S1130A803F912F910F900FBE0F901F901895EF92EA
S1130A90FF920F931F93CF93DF938C01EB01FC0123
S1130AA0218D328D21153105C1F420E930E040E07B
S1130AB050E060E070E0CE010E94DE0421EA30E004
S1130AC041E050E060E070E0CE01DF91CF911F91F2
S1130AD00F91FF90EF900C94DE04FC01808181342F
S1130AE031F4CB010E948E0422EB30E094C08234B6
S1130AF0C9F523EC30E040E050E060E070E0CE0166
S1130B000E94DE04EE24E394F12CF801818D928D91
S1130B10E816F90674F4B701655F7F4F28EF30E0FB
S1130B2040E050E0CE010E94DE049FEFE91AF90A8A
S1130B30ECCF05970CF4C4C02FEC30E041E050E05A
S1130B4060E070E0CE010E94DE04C8010E9449000A
S1130B50FFE72AE186E0F15020408040E1F700C041
S1130B600000A5C0833409F059C0253031050CF5C7
S1130B7020EE30E040E050E060E070E0CE010E9402
S1130B80DE04EE24E394F12CF801818D928DE816B5
S1130B90F9060CF095C0B701675F7F4F28EF30E08E
S1130BA040E050E0CE010E94DE049FEFE91AF90A0A
S1130BB0EBCF2930310554F52BEE30E040E050E026
S1130BC060E070E0CE010E94DE042AEF30E041E0F4
S1130BD050E060E070E0CE010E94DE0485E0E82E83
S1130BE0F12CF801818D928DE816F9060CF068C09D
S1130BF0B7016B5F7F4F28EF30E041E050E0CE015A
S1130C000E94DE04FFEFEF1AFF0AEBCFCB010E9434
S1130C108E0425E031E040E050E092CF843479F551
S1130C2026E131E040E050E060E070E0CE010E9457
S1130C30DE04F801818D928D02970CF441C0980175
S1130C402F5F3F4F40E050E06EE070E0CE010E9425
S1130C50DE0424E231E041E050E060E070E0CE01E7
S1130C600E94DE04C8010E944900FFE72AE186E0F1
S1130C70F15020408040E1F700C0000021C0CB01CA
S1130C800E948E0425E331E040E050E060E070E033
S1130C90CE010E94DE049FE7EAE1F6E09150E040D5
S1130CA0F040E1F700C00000C8010E944900CE01F5
S1130CB0DF91CF911F910F91FF90EF900C948E04D0
S1130CC0DF91CF911F910F91FF90EF900895CF93F3
S1130CD0DF93CDB7DEB7C255D1090FB6F894DEBFA6
S1130CE00FBECDBF0AE12BE14CE168E0CE018F5B82
S1130CF09F4F0E9473046DE1CE01815B9F4F0E9460
S1130D00EE02CE01815B9F4F0E94F702CE01019655
S1130D100E94570060E1CE018E960E941203BE012C
S1130D20625D7F4FCE0101960E948400BE016F5B1D
S1130D307F4FCE0101960E944705F1CF5058BB2743
S1130D40AA270E94B6060C94BD070E94AF0738F08C
S1130D500E94B60720F039F49F3F19F426F40C944E
S1130D60AC070EF4E095E7FB0C94A607E92F0E946C
S1130D70CE0758F3BA17620773078407950720F064
S1130D8079F4A6F50C94F0070EF4E0950B2EBA2F27
S1130D90A02D0B01B90190010C01CA01A00111247D
S1130DA0FF27591B99F0593F50F4503E68F11A1629
S1130DB0F040A22F232F342F4427585FF3CF4695BA
S1130DC037952795A795F0405395C9F77EF41F16DC
S1130DD0BA0B620B730B840BBAF09150A1F0FF0FA6
S1130DE0BB1F661F771F881FC2F70EC0BA0F621F92
S1130DF0731F841F48F4879577956795B795F79582
S1130E009E3F08F0B0CF9395880F08F09927EE0F16
S1130E109795879508950E94820708F481E00895C4
S1130E200E9424070C94BD070E94B60758F00E9444
S1130E30AF0740F029F45F3F29F00C94A607511145
S1130E400C94F1070C94AC070E94CE0768F3992325
S1130E50B1F3552391F3951B550BBB27AA276217B2
S1130E607307840738F09F5F5F4F220F331F441FBF
S1130E70AA1FA9F335D00E2E3AF0E0E832D09150F3
S1130E805040E695001CCAF72BD0FE2F29D0660FE0
S1130E90771F881FBB1F261737074807AB07B0E823
S1130EA009F0BB0B802DBF01FF2793585F4F3AF029
S1130EB09E3F510578F00C94A6070C94F1075F3F10
S1130EC0E4F3983ED4F3869577956795B795F795AF
S1130ED09F5FC9F7880F911D9695879597F9089597
S1130EE0E1E0660F771F881FBB1F62177307840733
S1130EF0BA0720F0621B730B840BBA0BEE1F88F742
S1130F00E0950895990F0008550FAA0BE0E8FEEF4D
S1130F1016161706E807F907C0F012161306E407B9
S1130F20F50798F0621B730B840B950B39F40A26B2
S1130F3061F0232B242B252B21F408950A2609F490
S1130F40A140A6958FEF811D811D089597F99F6794
S1130F5080E870E060E008959FEF80EC089500243D
S1130F600A941616170618060906089500240A940A
S1130F7012161306140605060895092E0394000C90
S1130F8011F4882352F0BB0F40F4BF2B11F460FF1F
S1130F9004C06F5F7F4F8F4F9F4F089557FD905848
S1130FA0440F551F59F05F3F71F04795880F97FB29
S1130FB0991F61F09F3F79F08795089512161306E3
S1130FC01406551FF2CF4695F1DF08C01616170612
S1130FD01806991FF1CF8695710561050894089547
S1130FE0E894BB2766277727CB0197F908950E94D9
S1130FF0820708F48FEF089597FB072E16F40094E8
S113100007D077FD09D00E94100807FC05D03EF4F4
S1131010909581959F4F0895709561957F4F0895A0
S1131020AA1BBB1B51E107C0AA1FBB1FA617B7070A
S113103010F0A61BB70B881F991F5A95A9F7809526
S10F10409095BC01CD010895F894FFCFF9
S113104C3132334134353642373839432A3023442C
S113105C00004000140054000000000002010000D5
S113106C0000E10200000000030300000000410442
S113107C53616665203A4421202020202020202022
S113108C0020202020202020202020202020202070
S113109C20004572726F7220696E2041726D696E08
S11310AC6721005061737320636F64653A200046B6
S11310BC61696C656420746F2064697361726D007E
S11310CC4F6C6420636F64653A20004F6C6420633A
S11310DC6F64653A202A2A2A2A004E657720636FAA
S11310EC64653A20004661696C656420746F204322
S11310FC68616E6765004D656E752043686F696342
S113110C653A2000556E617661696C61626C65208C
S113111C4E6F772100496E76616C696420496E705C
S107112C75740000D2
S9030000FC
