S01D00004D6963726F636F6E74726F6C6C657253797374656D2E7372656344
S11300000C942A000C9447000C9447000C9447006D
S11300100C9447000C9447000C9447000C94470040
S11300200C9447000C9447000C9447000C94470030
S11300300C9447000C9447000C9447000C94470020
S11300400C94B3030C9447000C9447000C944700A1
S11300500C94470011241FBECFE5D8E0DEBFCDBF0E
S113006010E0A0E6B0E0ECE0FAE002C005900D92EA
S1130070A638B107D9F721E0A6E8B0E001C01D9287
S1130080AC31B207E1F70E9495040C9404050C947A
S1130090000027B1207E27B927B1FC018481822B7F
S11300A087B9089527B12F7130E0FC01448150E0F5
S11300B081E02417350709F080E0089597B19F7314
S11300C097B996B1987F96B996B1692B66B927B15D
S11300D030E4839FC0011124822B87B9339A379A65
S11300E0789408950F931F93CF93DF93EC018A01C3
S11300F08CE690E0998388836C831B821A8264E087
S113010083E00E945E001E830D83DF91CF911F91D7
S11301100F91089524B145B130E0342BFC013383B1
S113012022830895DC01ED91FC910190F081E02D92
S11301300995369A089536980895CF93DF93EC0184
S11301408CE690E099838883CE010E945200882334
S113015041F087B1807E87B9CE01DF91CF910C94B5
S11301609B00DF91CF9108950F931F93CF93DF935B
S1130170CDB7DEB727970FB6F894DEBF0FBECDBF5D
S11301808C010E948A00D8011596ED91FC91169776
S11301908CE690E09A83898312968D919C911397B3
S11301A09C838B8314968C918D83FF83EE83CE0185
S11301B001960995CE0101960E949D0027960FB6DF
S11301C0F894DEBF0FBECDBFDF91CF911F910F9189
S11301D00895662309F43FC0883060F44BB321E0EE
S11301E030E0B90102C0660F771F8A95E2F7CB01B0
S11301F0842B3FC098EF980F983060F448B321E007
S113020030E0B90102C0660F771F9A95E2F7CB017F
S1130210842B41C090EF980F983060F445B321E0EF
S113022030E0B90102C0660F771F9A95E2F7CB015F
S1130230842B43C098EE980F983008F051C042B315
S113024021E030E0B90102C0660F771F9A95E2F70A
S1130250CB01842B44C0883070F44BB321E030E0F0
S1130260B90102C0660F771F8A95E2F7CB0180952A
S113027084238BBB089598EF980F983070F448B39B
S113028021E030E0B90102C0660F771F9A95E2F7CA
S1130290CB018095842388BB089590EF980F983004
S11302A070F445B321E030E0B90102C0660F771F56
S11302B09A95E2F7CB018095842385BB089598EE47
S11302C0980F983068F442B321E030E0B90102C0DD
S11302D0660F771F9A95E2F7CB018095842382BB42
S11302E00895662309F43FC0883060F44AB321E0DE
S11302F030E0B90102C0660F771F8A95E2F7CB019F
S1130300842B3FC098EF980F983060F447B321E0F6
S113031030E0B90102C0660F771F9A95E2F7CB016E
S1130320842B41C090EF980F983060F444B321E0DF
S113033030E0B90102C0660F771F9A95E2F7CB014E
S1130340842B43C098EE980F983008F051C041B305
S113035021E030E0B90102C0660F771F9A95E2F7F9
S1130360CB01842B44C0883070F44AB321E030E0E0
S1130370B90102C0660F771F8A95E2F7CB01809519
S113038084238ABB089598EF980F983070F447B38C
S113039021E030E0B90102C0660F771F9A95E2F7B9
S11303A0CB018095842387BB089590EF980F9830F4
S11303B070F444B321E030E0B90102C0660F771F46
S11303C09A95E2F7CB018095842384BB089598EE37
S11303D0980F983068F441B321E030E0B90102C0CD
S11303E0660F771F9A95E2F7CB018095842381BB32
S11303F00895883059F018F4882331F00895803135
S113040039F0883139F008956BBB089568BB0895BD
S113041065BB089562BB0895883059F018F48823A9
S113042031F00895803139F0883139F008956ABB8C
S1130430089567BB089564BB089561BB089588302F
S113044059F020F4811113C089B309C0803131F00F
S1130450883169F480B303C086B301C083B390E0EC
S113046002C0959587956A95E2F78170089580E0BA
S11304700895CF93DF93EC0161E08B810E947101B9
S113048060E08B81DF91CF910C94E90022E730E0AA
S1130490FC0131832083638312820C943902CF934D
S11304A0DF93EC0161E08B810E94E90081E08A83A3
S11304B0DF91CF910895CF93DF93EC0161E08B81BD
S11304C00E94E9000000000060E08B81DF91CF9181
S11304D00C94E900CF93DF93EC0160E070E08A8133
S11304E00E940C0261E08C810E94E90060E08D8131
S11304F00E94E90067E08A810E941F02811104C002
S1130500CE010E945B02F6CF6FEF70E08A81DF912B
S1130510CF910C940C020F931F93CF93DF931F92F0
S1130520CDB7DEB78C0169830E946A02698170E0ED
S1130530F80182810E94F90160E0F80184810E943F
S1130540E90060E0F80185810E94E900C8010E9489
S11305505B0260E070E0F80182810F90DF91CF913F
S11305601F910F910C94F901CF93DF93EC0161E09B
S11305708D810E94710161E08C810E94710161E0B2
S11305808B810E94710185EA9EE00197F1F700C01A
S1130590000061E0CE010E948B0283EF91E001979D
S11305A0F1F700C0000068E3CE010E948B0290E1E5
S11305B09A95F1F700C06CE0CE010E948B0280E1B5
S11305C08A95F1F700C0DF91CF9108950F93CF93EF
S11305D0DF93EC0188E790E09983888388E0E0E684
S11305E0F0E0DE01169601900D928A95E1F76A8398
S11305F04D832C830B83CE01DF91CF910F910C940B
S1130600B4026058FA013396EE0FFF1FE80FF91F8A
S11306102081620F0C948B020F931F93CF93DF936F
S11306201F92CDB7DEB78C0169830E946A0269818B
S113063070E0F80182810E94F90160E0F801848190
S11306400E94E90061E0F80185810E94E900C80187
S11306500E945B0260E070E0F80182810F90DF91FC
S1130660CF911F910F910C94F9010F931F93CF9386
S1130670DF938C01EB016991662321F0C8010E948C
S11306800C03F9CFDF91CF911F910F9108950F9330
S11306901F93CF93DF93EC0189010E940103B801FA
S11306A0CE01DF91CF911F910F910C943503CF921E
S11306B0DF92EF92FF920F931F93CF93DF93CDB707
S11306C0DEB760970FB6F894DEBF0FBECDBF8C01C6
S11306D07B016A01C9014AE0BE016F5F7F4F0E943E
S11306E0CF049E012F5F3F4FA601B701C8010E94AE
S11306F0470360960FB6F894DEBF0FBECDBFDF91FF
S1130700CF911F910F91FF90EF90DF90CF900895BC
S11307108091080190910901009749F0880F991F71
S1130720FC01E65FFE4F808191810C949200089554
S113073020910A0130910B012115310531F441E07A
S113074050E05093090140930801F901EE0FFF1F97
S1130750E45FFE4F918380832F5F3F4F30930B0103
S113076020930A0108951F920F920FB60F9211243D
S11307702F933F934F935F936F937F938F939F93A5
S1130780AF93BF93EF93FF93209108013091090138
S113079040910A0150910B01C9010197880F991FDB
S11307A0FC01E45FFE4F808191812417350769F4D1
S11307B00E94B40081E090E09093090180930801C5
S11307C080910C0190910D0114C00E94B40080919D
S11307D00801909109019C012F5F3F4F309309015B
S11307E020930801880F991FFC01E45FFE4F80816C
S11307F091810E949200FF91EF91BF91AF919F91DF
S11308008F917F916F915F914F913F912F910F90B5
S11308100FBE0F901F9018952091C6003091C7000D
S1130820A901440F551FFA01E853FF4F91838083B8
S1130830FA01EA57FF4F718360832F5F3F4F309374
S1130840C7002093C6000895E6E8F0E020E030E019
S1130850419151914817590741F4220F331FF9016F
S1130860E853FF4F8081918108952F5F3F4F2032DD
S1130870310571F780E090E008950F931F93CF93B3
S1130880DF938C018AE790E00E942404EC012EE7B8
S113089030E041E050E060E070E00E944703F8017E
S11308A02281338141E050E060E070E0CE010E949B
S11308B05703FFE926E881E0F15020408040E1F74A
S11308C000C00000DF91CF911F910F9108950C9407
S11308D03D040F931F93CF93DF938C018AE790E03D
S11308E00E942404EC012EE730E040E050E060E098
S11308F070E00E944703F8012281338140E050E018
S113090060E070E0CE010E945703FFE926E881E031
S1130910F15020408040E1F700C00000DF91CF910A
S11309201F910F9108950C946904CF93DF93CDB771
S1130930DEB7A0970FB6F894DEBF0FBECDBF0EE1B1
S11309402DE14CE168E0CE0101960E94E6026FE1E0
S1130950CE014D960E94460243E954E060E0CE0188
S113096046960E94720047E654E061E0CE010F967D
S11309700E947200CE014D960E944F026AE770E019
S1130980CE0101960E940C04CE0146960E94980363
S1130990CE010F960E9498030E948803FFCFBB27C5
S11309A04A3031F4992322F4BDE2909581959F4F0A
S11309B00C94DB04BB27FB015527AA27880F991F3A
S11309C0AA1FA41710F0A41B83955051B9F7A05D7A
S11309D0AA3308F0A95DA193009779F7B111B193F7
S11309E01192CB010C94F404DC01FC01672F71918A
S11309F07723E1F7329704C07C916D937083629101
S10F0A00AE17BF07C8F30895F894FFCFA9
S1130A0C00004000140054000000000049000000E5
S1130A1C0000390200000000B4024C4344002020C2
S1090A2C20202020000040
S9030000FC
