:100000000C942C000C9454000C9454000C94540048
:100010000C9454000C9454000C9454000C94540010
:100020000C9454000C9454000C9454000C94540000
:100030000C9454000C9454000C9454000C945400F0
:100040000C949B040C9454000C9454000C94540095
:100050000C945400D804FE0411241FBECFE5D8E050
:10006000DEBFCDBF10E0A0E6B0E0E0E7FDE002C0FB
:1000700005900D92AA39B107D9F720E0AAE9B0E0BE
:1000800001C01D92A33CB207E1F710E0CBE2D0E043
:1000900004C02197FE010E947006CA32D107C9F739
:1000A0000E9458040C94AB060C94000027B1207EEB
:1000B00027B927B1FC018481822B87B9089508955F
:1000C00027B12F7130E0FC01448150E081E024171A
:1000D000350709F080E0089597B19F7397B996B1FD
:1000E000987F96B996B1692B66B927B130E4839FA2
:1000F000C0011124822B87B9339A379A78940895D6
:10010000FC018CE690E091838083648313821282E9
:1001100064E083E00C946C0024B145B130E0342BF2
:10012000FC01338322830895DC01ED91FC91019061
:10013000F081E02D0995369A0895FC017683658358
:100140000895CF93DF93EC010E948C00ED81FE8136
:100150006C818A819B81DF91CF910994442361F165
:10016000811109C02BB381E090E001C0880F6A952E
:10017000EAF7822B2CC0813049F428B381E090E06B
:1001800001C0880F6A95EAF7822B2EC0823049F4AD
:1001900025B381E090E001C0880F6A95EAF7822BD1
:1001A00030C08330E1F522B381E090E001C0880FD8
:1001B0006A95EAF7822B32C081110BC02BB381E024
:1001C00090E001C0880F6A95EAF7809582238BBB87
:1001D0000895813059F428B381E090E001C0880F80
:1001E0006A95EAF78095822388BB0895823059F496
:1001F00025B381E090E001C0880F6A95EAF7809509
:10020000822385BB0895833051F422B381E090E0CE
:1002100001C0880F6A95EAF78095822382BB089512
:10022000442361F1811109C02AB381E090E001C04B
:10023000880F6A95EAF7822B2CC0813049F427B3E6
:1002400081E090E001C0880F6A95EAF7822B2EC00A
:10025000823049F424B381E090E001C0880F6A95B0
:10026000EAF7822B30C08330E1F521B381E090E0E2
:1002700001C0880F6A95EAF7822B32C081110BC04A
:100280002AB381E090E001C0880F6A95EAF7809573
:1002900082238ABB0895813059F427B381E090E02E
:1002A00001C0880F6A95EAF78095822387BB08957D
:1002B000823059F424B381E090E001C0880F6A9540
:1002C000EAF78095822384BB0895833051F421B3EB
:1002D00081E090E001C0880F6A95EAF7809582235B
:1002E00081BB0895811102C06BBB0895813011F468
:1002F00068BB0895823011F465BB0895833009F41A
:1003000062BB0895811102C06ABB0895813011F467
:1003100067BB0895823011F464BB0895833009F4FB
:1003200061BB0895813049F030F0823041F0833074
:1003300079F480B305C089B303C086B301C083B329
:1003400090E002C0959587956A95E2F781700895CF
:1003500080E00895CF93DF93EC0141E06C818B81C5
:100360000E94100140E06C818B81DF91CF910C9451
:10037000AE0022E730E0FC013183208363834483B5
:1003800012820C94AA010895CF93DF93EC0141E00F
:100390006C818B810E94AE0081E08A83DF91CF91D6
:1003A0000895CF93DF93EC0140E06C818B810E9434
:1003B000AE001A82DF91CF910895CF93DF93EC01C5
:1003C0008A81811104C0CE010E94C40103C0CE0104
:1003D0000E94D1018A81DF91CF910895CF93DF935D
:1003E000EC018AE790E09983888360E070E08A817D
:1003F0000E94820140E06E818B810E94100140E0EA
:100400006D818B810E94100140E06C818B810E9484
:10041000100160E070E08A810E94720140E06E810C
:100420008B810E94AE0040E06D818B810E94AE0006
:1004300040E06C818B81DF91CF910C94AE00CF9323
:10044000DF93EC0141E06C818B810E94AE000000E3
:10045000000040E06C818B81DF91CF910C94AE0065
:10046000CF93DF93EC0160E070E08A810E9482010B
:1004700041E06D818B810E94AE0040E06E818B81F6
:100480000E94AE0067E08A810E949201811104C03F
:10049000CE010E941F02F6CF6FEF70E08A81DF91DC
:1004A000CF910C9482010F931F93CF93DF931F92F0
:1004B000CDB7DEB78C0169830E943002698170E09C
:1004C000F80182810E94720140E0F8016581838118
:1004D0000E94AE0040E0F801668183810E94AE0078
:1004E000C8010E941F0260E070E0F80182810F9055
:1004F000DF91CF911F910F910C947201CF93DF93F5
:10050000EC0141E06E818B810E94100141E06D8120
:100510008B810E94100141E06C818B810E9410014F
:1005200085EA9EE00197F1F700C0000061E0CE018E
:100530000E94530283EF91E00197F1F700C00000A1
:1005400068E3CE010E94530290E19A95F1F700C052
:100550006CE0CE010E94530280E18A95F1F700C061
:10056000DF91CF910895EF920F93CF93DF93EC013A
:100570008AE790E09983888388E0E0E6F0E0DE0196
:10058000179601900D928A95E1F76A834B832E832B
:100590000D83EC82CE01DF91CF910F91EF900C94FF
:1005A0007E026058FA01EE0FFF1FE80FF91F278146
:1005B000620F0C9453020F931F93CF93DF931F92FC
:1005C000CDB7DEB78C0169830E943002698170E08B
:1005D000F80182810E94720140E0F8016581838107
:1005E0000E94AE0041E0F801668183810E94AE0066
:1005F000C8010E941F0260E070E0F80182810F9044
:10060000DF91CF911F910F910C9472010F931F9363
:10061000CF93DF938C01EB016991662321F0C80130
:100620000E94DB02F9CFDF91CF911F910F910895C6
:100630000F931F93CF93DF93EC0189010E94D102A6
:10064000B801CE01DF91CF911F910F910C94060359
:100650004F925F926F927F928F929F92AF92BF92D2
:10066000CF92DF92EF92FF920F931F93CF93DF937E
:10067000CDB7DEB77C014B013A01C901ADB6BEB6BC
:100680002DB73EB7201B310B0FB6F8943EBF0FBEFF
:100690002DBF2F5F3F4F69014AE0B9010E947606E6
:1006A000412C512C401651064CF464E770E0C70110
:1006B0000E9406033FEF431A530AF4CF9601A301A9
:1006C000B401C7010E9418030FB6F894BEBE0FBE56
:1006D000ADBEDF91CF911F910F91FF90EF90DF9012
:1006E000CF90BF90AF909F908F907F906F905F90D2
:1006F0004F900895CF93DF93EC0140E06C818B81A4
:100700000E9410014E816C818B810E94AE001A8282
:10071000DF91CF9108950F93FC0180E890E09183E1
:1007200080836383448325830683CF010F910C94D8
:100730007A030895FC0186816481882331F08381E6
:100740000E94920191E08927089583810C9492017F
:100750004F925F926F927F928F929F92AF92BF92D1
:10076000CF92DF92EF92FF920F931F93CF938C0162
:10077000812C912C540175016401C0E0C8010E94D4
:100780009A03882351F020E030E040E85FE3C501A0
:10079000B4010E9413054B015C0120E030E048E405
:1007A00052E4C701B6010E946B0618160CF5A701AA
:1007B0009601C501B4010E9484052B013C0126E687
:1007C00036E646E65FE30E946B0618160CF43FC05F
:1007D000A301920160E070E080E89FE30E941205AF
:1007E00026E636E646E65FE30E946B0618168CF1B5
:1007F00020E03CE34CE156E4C701B6010E947F05CE
:10080000811112C020E03CE34CE156E4C501B40183
:100810000E948405C1E020E030E040E05FE30E94F8
:100820006B0618160CF0C0E020E030E040E85FE313
:10083000C701B6010E9413056B017C0120E030E482
:100840004CE156E40E947F0587FD98CF03C0C1E0CC
:1008500001C0C0E0F8018281C813C2838C2FCF9100
:100860001F910F91FF90EF90DF90CF90BF90AF90CE
:100870009F908F907F906F905F904F9008950F930F
:100880001F93462F50E004E010E09C016BE070E005
:1008900084EB90E00E9428032FE986E891E0215044
:1008A00080409040E1F700C000001F910F91089533
:1008B00022E830E040E050E060E070E084EB90E05F
:1008C0000E9418032EE830E041E050E060E070E064
:1008D00084EB90E00E9418036FE374E08DEA90E0EF
:1008E0000E949D006FE374E086EA90E00E949D0004
:1008F0008DEA90E00E9494008AE990E00E94DD0178
:100900008FE990E00E94A803882329F087EA91E606
:100910000197F1F70DC08FE990E00E94A8038111C3
:10092000EBCF9FE32DE083E0915020408040E1F742
:1009300000C00000E1CF1F920F920FB60F9211245A
:100940002F933F934F935F936F937F938F939F93D7
:10095000AF93BF93EF93FF938DEA90E00E94600006
:10096000882339F08DEA90E00E94A10086EA90E0A9
:100970000CC086EA90E00E946000882341F086EA7D
:1009800090E00E94A1008DEA90E00E949400FF9107
:10099000EF91BF91AF919F918F917F916F915F91F7
:1009A0004F913F912F910F900FBE0F901F90189570
:1009B000EF920F9385E0E82E07E022E043E061E04C
:1009C00084EB90E00E94B30260E08DEA90E00E9428
:1009D000800061E086EA90E00E94800001E020E073
:1009E00046E062E08FE990E00E948B0347E062E01E
:1009F0008AE990E00F91EF900C94B9018AE990E0B8
:100A00000E94C3018FE990E00E94990386EA90E07A
:100A10000E945F008DEA90E00E945F0084EB90E00E
:100A20000C94EE015058BB27AA270E942A050C946B
:100A300031060E94230638F00E942A0620F039F47D
:100A40009F3F19F426F40C9420060EF4E095E7FB82
:100A50000C941A06E92F0E94420658F3BA1762074F
:100A600073078407950720F079F4A6F50C946406C3
:100A70000EF4E0950B2EBA2FA02D0B01B9019001B9
:100A80000C01CA01A0011124FF27591B99F0593FFD
:100A900050F4503E68F11A16F040A22F232F342F45
:100AA0004427585FF3CF469537952795A795F04093
:100AB0005395C9F77EF41F16BA0B620B730B840BA8
:100AC000BAF09150A1F0FF0FBB1F661F771F881F60
:100AD000C2F70EC0BA0F621F731F841F48F48795B8
:100AE00077956795B795F7959E3F08F0B0CF9395AA
:100AF000880F08F09927EE0F9795879508950E9423
:100B0000F60508F481E008950E9498050C943106DA
:100B10000E942A0658F00E94230640F029F45F3F05
:100B200029F00C941A0651110C9465060C942006B9
:100B30000E94420668F39923B1F3552391F3951B64
:100B4000550BBB27AA2762177307840738F09F5FEE
:100B50005F4F220F331F441FAA1FA9F335D00E2E5B
:100B60003AF0E0E832D091505040E695001CCAF7C8
:100B70002BD0FE2F29D0660F771F881FBB1F26178B
:100B800037074807AB07B0E809F0BB0B802DBF0162
:100B9000FF2793585F4F3AF09E3F510578F00C9431
:100BA0001A060C9465065F3FE4F3983ED4F38695ED
:100BB00077956795B795F7959F5FC9F7880F911D52
:100BC0009695879597F90895E1E0660F771F881F3E
:100BD000BB1F621773078407BA0720F0621B730BF1
:100BE000840BBA0BEE1F88F7E0950895990F000863
:100BF000550FAA0BE0E8FEEF16161706E807F907EF
:100C0000C0F012161306E407F50798F0621B730B89
:100C1000840B950B39F40A2661F0232B242B252B0A
:100C200021F408950A2609F4A140A6958FEF811DAD
:100C3000811D089597F99F6780E870E060E008954E
:100C40009FEF80EC089500240A94161617061806E4
:100C50000906089500240A941216130614060506C0
:100C60000895092E0394000C11F4882352F0BB0F51
:100C700040F4BF2B11F460FF04C06F5F7F4F8F4FB4
:100C80009F4F089557FD9058440F551F59F05F3FEF
:100C900071F04795880F97FB991F61F09F3F79F09E
:100CA00087950895121613061406551FF2CF469520
:100CB000F1DF08C0161617061806991FF1CF8695A2
:100CC0007105610508940895E894BB276627772786
:100CD000CB0197F908950E94F60508F48FEF089567
:100CE000EE0FFF1F0590F491E02D0994BB274A30C9
:100CF00031F4992322F4BDE2909581959F4F0C9495
:100D00008206BB27FB015527AA27880F991FAA1F18
:100D1000A41710F0A41B83955051B9F7A05DAA3316
:100D200008F0A95DA193009779F7B111B1931192E1
:100D3000CB010C949B06DC01FC01672F719177239A
:100D4000E1F7329704C07C916D9370836291AE1786
:100D5000BF07C8F3089510E0CBE2D0E004C0FE0165
:100D60000E9470062196CC32D107C9F7F894FFCFC4
:100D70000000400014005400000000005600000075
:100D80000000AA012000000000007E020000000018
:100D90007A0341444320526573756C743A00504F96
:0A0DA0005420526573756C743A001C
:00000001FF
