S01D00004D6963726F636F6E74726F6C6C657253797374656D2E7372656344
S11300000C942A000C943F000C943F000C943F0085
S11300100C943F000C943F000C943F000C943F0060
S11300200C943F000C943F000C943F000C943F0050
S11300300C943F000C943F000C943F000C943F0040
S11300400C943F000C943F000C943F000C943F0030
S11300500C943F0011241FBECFE5D8E0DEBFCDBF16
S113006010E0A0E6B0E0E6EBF7E002C005900D92E8
S1130070A439B107D9F70E9429030C94D9030C942D
S11300800000442361F1811109C02BB381E090E0A9
S113009001C0880F6A95EAF7822B2CC0813049F49D
S11300A028B381E090E001C0880F6A95EAF7822BBB
S11300B02EC0823049F425B381E090E001C0880F5E
S11300C06A95EAF7822B30C08330E1F522B381E0F0
S11300D090E001C0880F6A95EAF7822B32C0811143
S11300E00BC02BB381E090E001C0880F6A95EAF75A
S11300F0809582238BBB0895813059F428B381E025
S113010090E001C0880F6A95EAF78095822388BB46
S11301100895823059F425B381E090E001C0880F3E
S11301206A95EAF78095822385BB0895833051F45C
S113013022B381E090E001C0880F6A95EAF78095C8
S1130140822382BB0895442361F1811109C02AB33B
S113015081E090E001C0880F6A95EAF7822B2CC0F9
S1130160813049F427B381E090E001C0880F6A959B
S1130170EAF7822B2EC0823049F424B381E090E068
S113018001C0880F6A95EAF7822B30C08330E1F50D
S113019021B381E090E001C0880F6A95EAF7822BD1
S11301A032C081110BC02AB381E090E001C0880FF6
S11301B06A95EAF7809582238ABB0895813059F4C1
S11301C027B381E090E001C0880F6A95EAF7809533
S11301D0822387BB0895823059F424B381E090E0F0
S11301E001C0880F6A95EAF78095822384BB08953D
S11301F0833051F421B381E090E001C0880F6A9507
S1130200EAF78095822381BB0895811102C06BBBFC
S11302100895813011F468BB0895823011F465BBF0
S11302200895833009F462BB0895811102C06ABB4A
S11302300895813011F467BB0895823011F464BBD2
S11302400895833009F461BB0895811102C089B314
S11302500BC0813011F486B307C0823011F483B32C
S113026003C0833049F480B390E002C0959587952C
S11302706A95E2F7817008950895CF93DF93EC01B6
S113028041E06C818B810E94A30040E06C818B81F2
S1130290DF91CF910C9441002CE630E0FC013183D6
S11302A020836383448312820C943D01CF93DF93B4
S11302B0EC0141E06C818B810E94410081E08A83E2
S11302C0DF91CF910895CF93DF93EC0140E06C81EF
S11302D08B810E9441001A82DF91CF910895CF93C0
S11302E0DF93EC018A81811104C0CE010E94560182
S11302F003C0CE010E9463018A81DF91CF910895EA
S1130300CF93DF93EC0141E06C818B810E9441002B
S11303100000000040E06C818B81DF91CF910C9450
S11303204100CF93DF93EC0160E070E08A810E948A
S1130330150141E06D818B810E94410040E06E8196
S11303408B810E94410067E08A810E94250181110E
S113035004C0CE010E948001F6CF6FEF70E08A8165
S1130360DF91CF910C9415010F931F93CF93DF93DB
S11303701F92CDB7DEB78C0169830E949101698118
S113038070E0F80182810E94050140E0F801658176
S113039083810E94410040E0F801668183810E94CC
S11303A04100C8010E94800160E070E0F801828190
S11303B00F90DF91CF911F910F910C940501CF9372
S11303C0DF93EC0141E06E818B810E94A30041E048
S11303D06D818B810E94A30041E06C818B810E941E
S11303E0A30085EA9EE00197F1F700C0000061E0F8
S11303F0CE010E94B40183EF91E00197F1F700C0B0
S1130400000068E3CE010E94B40190E19A95F1F7EF
S113041000C06CE0CE010E94B40180E18A95F1F73E
S113042000C0DF91CF910895EF920F93CF93DF93A4
S1130430EC0182E790E09983888388E0E0E6F0E0CD
S1130440DE01179601900D928A95E1F76A834B833A
S11304502E830D83EC82CE01DF91CF910F91EF902B
S11304600C94DF016058FA01EE0FFF1FE80FF91F2B
S11304702781620F0C94B40161E00E94B40183EF00
S113048091E00197F1F700C0000008950F931F93C6
S1130490CF93DF931F92CDB7DEB78C0169830E949F
S11304A09101698170E0F80182810E94050140E0B8
S11304B0F801658183810E94410041E0F801668171
S11304C083810E944100C8010E94800160E070E0C5
S11304D0F80182810F90DF91CF911F910F910C94BD
S11304E005010F931F93CF93DF938C01EB01699167
S11304F0662321F0C8010E944602F9CFDF91CF9113
S11305001F910F9108950F931F93CF93DF93EC01E5
S113051089010E943202B801CE01DF91CF911F916F
S11305200F910C9471024F925F926F927F928F920F
S11305309F92AF92BF92CF92DF92EF92FF920F936E
S11305401F93CF93DF93CDB7DEB77C014B013A0104
S1130550C901ADB6BEB62DB73EB7201B310B0FB6E1
S1130560F8943EBF0FBE2DBF2F5F3F4F69014AE095
S1130570B9010E94A403412C512C401651064CF49D
S113058061E970E0C7010E9471023FEF431A530A08
S1130590F4CF9601A301B401C7010E9483020FB6F0
S11305A0F894BEBE0FBEADBEDF91CF911F910F91E7
S11305B0FF90EF90DF90CF90BF90AF909F908F907F
S11305C07F906F905F904F900895CF93DF93EC01ED
S11305D040E06E818D810E94A30048856E818D81EB
S11305E00E9441001A82DF91CF910895EF92FF9209
S11305F00F93FC0188E790E09183808365834683B1
S113060027830087F482E382CF010F91FF90EF905C
S11306100C94E502FC0180856681882331F0858194
S11306200E94250191E08927089585810C94250174
S1130630CF93DF93EC010E940A039A81891729F072
S1130640CE010E940A03982F8A83892FDF91CF91CC
S11306500895CF93DF93CDB7DEB76D970FB6F894B7
S1130660DEBF0FBECDBF46E062E0CE0149960E94D8
S11306704C0184E6E82EF12C01E021E040E060E04A
S1130680CE0140960E94F60295E0E92E07E022E0B2
S113069043E061E0CE0101960E941402CE01499626
S11306A00E9456012AE730E040E050E060E070E04C
S11306B0CE0101960E94830205E010E02DE135E0B1
S11306C041E050E067E070E0CE0101960E949302A1
S11306D02FE382E49FE0215080409040E1F700C086
S11306E00000CE0101960E943C026BE870E0CE014E
S11306F001960E947102E12CF12C2FEFE21AF20A0A
S113070005E010E0970140E050E067E070E0CE01C2
S113071001960E949302CE0149960E946F01CE0178
S113072040960E941803882329F087EA91E60197EE
S1130730F1F707C09FE32DE083E091502040804013
S1130740E1F700C00000D9CFBB274A3031F4992328
S113075022F4BDE2909581959F4F0C94B003BB2782
S1130760FB015527AA27880F991FAA1FA41710F069
S1130770A41B83955051B9F7A05DAA3308F0A95D75
S1130780A193009779F7B111B1931192CB010C9415
S1130790C903DC01FC01672F71917723E1F73297DC
S11307A004C07C916D9370836291AE17BF07C8F348
S10907B00895F894FFCF48
S11307B60000400014005400000000003D01000049
S11307C60000DF0100000000E50248656C6C6F2044
S11307D64672616D65776F726B210056616C756543
S10707E63A200000B1
S9030000FC
