:100000000C942A000C9447000C9447000C94470071
:100010000C9447000C9447000C9447000C94470044
:100020000C9447000C9447000C9447000C94470034
:100030000C9447000C9447000C9447000C94470024
:100040000C9400030C9447000C9447000C94470058
:100050000C94470011241FBECFE5D8E0DEBFCDBF12
:1000600010E0A0E6B0E0E0EFF6E002C005900D92EF
:10007000AC37B107D9F720E0ACE7B0E001C01D9282
:10008000A039B207E1F70E9459030C9476030C944F
:10009000000027B1207E27B927B1FC018481822B83
:1000A00087B9089527B12F7130E0FC01448150E0F9
:1000B00081E02417350709F080E00895DC01ED9117
:1000C000FC910190F081E02D0995369A08953698BB
:1000D0000895CF93DF93EC018CE690E099838883B9
:1000E000CE010E945200882341F087B1807E87B9FB
:1000F000CE01DF91CF910C946700DF91CF910895ED
:10010000CF93DF93CDB7DEB727970FB6F894DEBF56
:100110000FBECDBF24B145B130E0342BDC011396C6
:100120003C932E9312971596ED91FC91169730976C
:1001300091F04CE650E05A8349833C832B8314961C
:100140008C918D83FF83EE83CE0101960995CE01BC
:1001500001960E94690027960FB6F894DEBF0FBE85
:10016000CDBFDF91CF910895662309F43FC0883059
:1001700060F44BB321E030E0B90102C0660F771F95
:100180008A95E2F7CB01842B3FC098EF980F983007
:1001900060F448B321E030E0B90102C0660F771F78
:1001A0009A95E2F7CB01842B41C090EF980F9830DD
:1001B00060F445B321E030E0B90102C0660F771F5B
:1001C0009A95E2F7CB01842B43C098EE980F9830B4
:1001D00008F051C042B321E030E0B90102C0660F1F
:1001E000771F9A95E2F7CB01842B44C0883070F4D6
:1001F0004BB321E030E0B90102C0660F771F8A954A
:10020000E2F7CB01809584238BBB089598EF980F7C
:10021000983070F448B321E030E0B90102C0660FB5
:10022000771F9A95E2F7CB018095842388BB0895C8
:1002300090EF980F983070F445B321E030E0B901A9
:1002400002C0660F771F9A95E2F7CB018095842351
:1002500085BB089598EE980F983068F442B321E07A
:1002600030E0B90102C0660F771F9A95E2F7CB0123
:100270008095842382BB0895662309F43FC08830AB
:1002800060F44AB321E030E0B90102C0660F771F85
:100290008A95E2F7CB01842B3FC098EF980F9830F6
:1002A00060F447B321E030E0B90102C0660F771F68
:1002B0009A95E2F7CB01842B41C090EF980F9830CC
:1002C00060F444B321E030E0B90102C0660F771F4B
:1002D0009A95E2F7CB01842B43C098EE980F9830A3
:1002E00008F051C041B321E030E0B90102C0660F0F
:1002F000771F9A95E2F7CB01842B44C0883070F4C5
:100300004AB321E030E0B90102C0660F771F8A9539
:10031000E2F7CB01809584238ABB089598EF980F6C
:10032000983070F447B321E030E0B90102C0660FA5
:10033000771F9A95E2F7CB018095842387BB0895B8
:1003400090EF980F983070F444B321E030E0B90199
:1003500002C0660F771F9A95E2F7CB018095842340
:1003600084BB089598EE980F983068F441B321E06B
:1003700030E0B90102C0660F771F9A95E2F7CB0112
:100380008095842381BB0895883059F018F4882320
:1003900031F00895803139F0883139F008956BBB20
:1003A000089568BB089565BB089562BB08958830C1
:1003B00059F018F4882331F00895803139F08831EC
:1003C00039F008956ABB089567BB089564BB08952A
:1003D00061BB0895883059F020F4811113C089B3AE
:1003E00009C0803131F0883169F480B303C086B32D
:1003F00001C083B390E002C0959587956A95E2F7B6
:100400008170089580E00895CF93DF93EC0161E05F
:100410008B810E94B4000000000060E08B81DF91BE
:10042000CF910C94B400CF93DF93EC0160E070E0C7
:100430008A810E94D70161E08C810E94B40060E053
:100440008D810E94B40067E08A810E94EA018111D7
:1004500004C0CE010E940402F6CF6FEF70E08A81E3
:10046000DF91CF910C94D7010F931F93CF93DF931C
:100470001F92CDB7DEB78C0169830E941302698198
:1004800070E0F80182810E94C40160E0F80184817B
:100490000E94B40060E0F80185810E94B400C801A8
:1004A0000E94040260E070E0F80182810F90DF9109
:1004B000CF911F910F910C94C401CF93DF93EC0166
:1004C00061E08D810E943C0161E08C810E943C01D1
:1004D00061E08B810E943C0185EA9EE00197F1F783
:1004E00000C0000061E0CE010E94340283EF91E081
:1004F0000197F1F700C0000068E3CE010E943402CA
:1005000090E19A95F1F700C06CE0CE010E943402B0
:1005100080E18A95F1F700C0DF91CF9108950F93A4
:10052000CF93DF93EC0182E790E09983888388E0A2
:10053000E0E6F0E0DE01169601900D928A95E1F773
:100540006A834D832C830B83CE01DF91CF910F9172
:100550000C945D026058FA013396EE0FFF1FE80F0E
:10056000F91F2081620F0C9434020F931F93CF93D5
:10057000DF931F92CDB7DEB78C0169830E9413020F
:10058000698170E0F80182810E94C40160E0F80195
:1005900084810E94B40061E0F80185810E94B4006A
:1005A000C8010E94040260E070E0F80182810F90AF
:1005B000DF91CF911F910F910C94C4010F931F9362
:1005C000CF93DF938C01EB016991662321F0C80181
:1005D0000E94B502F9CFDF91CF911F910F9108953D
:1005E0000F931F93CF93DF93EC0189010E94AA021E
:1005F000B801CE01DF91CF911F910F910C94DE02D3
:100600001F920F920FB60F9211242F933F934F9387
:100610005F936F937F938F939F93AF93BF93EF936A
:10062000FF9320917C0030917D0040917E0050919D
:100630007F00C9010197880F991FFC01E058FF4F07
:10064000808191812417350769F40E94800081E040
:1006500090E090937D0080937C0080918000909149
:10066000810014C00E94800080917C0090917D00E8
:100670009C012F5F3F4F30937D0020937C00880FBB
:10068000991FFC01E058FF4F808191810E945E001C
:10069000FF91EF91BF91AF919F918F917F916F915A
:1006A0005F914F913F912F910F900FBE0F901F9030
:1006B0001895CF93DF93CDB7DEB72E970FB6F8948A
:1006C000DEBF0FBECDBF0EE12DE14CE168E0CE01F3
:1006D00001960E948F0224E730E040E050E065E0A0
:1006E00070E0CE0101960E94F002FFCFF894FFCF98
:1006F0000000400014005400000000004900000009
:0C07000000005D0248656C6C6F21000079
:00000001FF
