:100000000C942A000C943F000C943F000C943F0089
:100010000C943F000C943F000C943F000C943F0064
:100020000C943F000C943F000C943F000C943F0054
:100030000C943F000C943F000C943F000C943F0044
:100040000C943F000C943F000C943F000C943F0034
:100050000C943F0011241FBECFE5D8E0DEBFCDBF1A
:1000600010E0A0E6B0E0ECE4F7E002C005900D92ED
:10007000A838B107D9F70E9424030C94A4030C9468
:100080000000CF93DF93EC016D817E8141E08B8195
:100090009C810E94F0006D817E8140E08B819C817B
:1000A000DF91CF910C948E002CE630E0FC0131837F
:1000B0002083748363835683458312820C944100AA
:1000C000CF93DF93EC016D817E8141E08B819C8138
:1000D0000E948E0081E08A83DF91CF910895CF93B3
:1000E000DF93EC016D817E8140E08B819C810E94D9
:1000F0008E001A82DF91CF910895CF93DF93EC01A8
:100100008A81811104C0CE010E94600003C0CE012B
:100110000E946F008A81DF91CF910895442361F19D
:10012000009749F42BB381E090E001C0880F6A95F5
:10013000EAF7822B2CC08130910539F428B301C035
:10014000880F6A95EAF7822B2EC08230910549F418
:1001500025B381E090E001C0880F6A95EAF7822B11
:1001600030C00397E1F522B381E090E001C0880F31
:100170006A95EAF7822B32C0009759F42BB381E0DD
:1001800090E001C0880F6A95EAF7809582238BBBC7
:1001900008958130910549F428B301C0880F6A950C
:1001A000EAF78095822388BB08958230910559F43F
:1001B00025B381E090E001C0880F6A95EAF7809549
:1001C000822385BB0895039751F422B381E090E028
:1001D00001C0880F6A95EAF78095822382BB089553
:1001E000442361F1009749F42AB381E090E001C013
:1001F000880F6A95EAF7822B2CC08130910539F47B
:1002000027B301C0880F6A95EAF7822B2EC082308F
:10021000910549F424B381E090E001C0880F6A950C
:10022000EAF7822B30C00397E1F521B381E090E03B
:1002300001C0880F6A95EAF7822B32C0009759F403
:100240002AB381E090E001C0880F6A95EAF78095B3
:1002500082238ABB08958130910549F427B301C0F8
:10026000880F6A95EAF78095822387BB08958230CC
:10027000910559F424B381E090E001C0880F6A959C
:10028000EAF78095822384BB0895039751F421B344
:1002900081E090E001C0880F6A95EAF7809582239B
:1002A00081BB0895009711F46BBB089581309105CF
:1002B00011F468BB08958230910511F465BB08956F
:1002C000039709F462BB0895009711F46ABB08957F
:1002D0008130910511F467BB08958230910511F4C6
:1002E00064BB0895039709F461BB0895009711F466
:1002F0008AB30DC08130910511F487B308C08230F4
:10030000910511F484B303C0039749F481B390E0DD
:1003100002C0959587956A95E2F78170089580E00F
:100320000895CF93DF93EC016E817F8141E08C8152
:100330009D810E948E00000000006E817F8140E060
:100340008C819D81DF91CF910C948E00CF93DF93B0
:10035000EC0160E070E08A819B810E946401688505
:10036000798541E08C819D810E948E006A857B8524
:1003700040E08C819D810E948E0067E070E08A8160
:100380009B810E947601882321F0CE010E94910179
:10039000F4CF6FEF70E08A819B81DF91CF910C9455
:1003A00064010F931F93CF93DF931F92CDB7DEB7F6
:1003B0008C0169830E94A601698170E0F801828145
:1003C00093810E945201F8016085718540E084812B
:1003D00095810E948E00F8016285738540E08481DA
:1003E00095810E948E00C8010E94910160E070E03A
:1003F000F801828193810F90DF91CF911F910F912E
:100400000C945201CF93DF93EC016A857B8541E028
:100410008C819D810E94F0006885798541E08C8106
:100420009D810E94F0006E817F8141E08C819D81E1
:100430000E94F00085EA9EE00197F1F700C00000FD
:1004400061E0CE010E94D10183EF91E00197F1F7C5
:1004500000C0000068E3CE010E94D10190E19A95AE
:10046000F1F700C06CE0CE010E94D10180E18A95D5
:10047000F1F700C0DF91CF910895EF92FF920F93B3
:100480001F93CF93DF93EC0184E790E099838883F7
:1004900088E0E0E6F0E0DE011C9601900D928A957E
:1004A000E1F77B836A835D834C833B872A871987C7
:1004B0000887FF82EE82CE01DF91CF911F910F91CD
:1004C000FF90EF900C9402026058FA013696EE0FFE
:1004D000FF1FE80FF91F2081620F0C94D1016111F9
:1004E00002C06CE005C0411102C06EE001C06FE0C7
:1004F0000E94D10180E18A95F1F700C008950F9321
:100500001F93CF93DF931F92CDB7DEB78C01698322
:100510000E94A601698170E0F801828193810E94A6
:100520005201F8016085718540E0848195810E94C7
:100530008E00F8016285738541E0848195810E9477
:100540008E00C8010E94910160E070E0F801828194
:1005500093810F90DF91CF911F910F910C945201D5
:100560000F931F93CF93DF938C01EB016991662367
:1005700021F0C8010E947F02F9CFDF91CF911F9136
:100580000F9108950F931F93CF93DF93EC0189018F
:100590000E946402B801CE01DF91CF911F910F91AB
:1005A0000C94B0024F925F926F927F928F929F92C3
:1005B000AF92BF92CF92DF92EF92FF920F931F9371
:1005C000CF93DF93CDB7DEB77C014B013A01C90170
:1005D000ADB6BEB62DB73EB7201B310B0FB6F894A3
:1005E0003EBF0FBE2DBF2F5F3F4F69014AE0B901EB
:1005F0000E946F03412C512C401651064CF46EE6BC
:1006000070E0C7010E94B0023FEF431A530AF4CFD3
:100610009601A301B401C7010E94C2020FB6F8946B
:10062000BEBE0FBEADBEDF91CF911F910F91FF9067
:10063000EF90DF90CF90BF90AF909F908F907F9082
:100640006F905F904F900895CF93DF93CDB7DEB753
:100650006B970FB6F894DEBF0FBECDBF46E050E0FB
:1006600062E070E0CE0145960E94540085E0E82EDD
:10067000F12C07E010E022E030E043E050E061E0E0
:1006800070E0CE0101960E943D0226E730E040E096
:1006900050E060E070E0CE0101960E94C20205E0E9
:1006A00010E02DE135E041E050E065E070E0CE0182
:1006B00001960E94D20240E061E0CE0101960E94C4
:1006C0006F02CE0145960E947D002FE986E891E0F9
:1006D000215080409040E1F700C00000F2CFBB27DE
:1006E0004A3031F4992322F4BDE2909581959F4FD1
:1006F0000C947B03BB27FB015527AA27880F991F62
:10070000AA1FA41710F0A41B83955051B9F7A05D40
:10071000AA3308F0A95DA193009779F7B111B193BD
:100720001192CB010C949403DC01FC01672F7191B1
:100730007723E1F7329704C07C916D9370836291C7
:0C074000AE17BF07C8F30895F894FFCF70
:10074C000000400014005400000000004100200094
:10075C0000000000020248656C6C6F20436F6E74E1
:08076C00726F6C6C65720000F5
:00000001FF
