S01D00004D6963726F636F6E74726F6C6C657253797374656D2E7372656344
S11300000C942A000C943F000C943F000C943F0085
S11300100C943F000C943F000C943F000C943F0060
S11300200C943F000C943F000C943F000C943F0050
S11300300C943F000C943F000C943F000C943F0040
S11300400C943F000C943F000C943F000C943F0030
S11300500C943F0011241FBECFE5D8E0DEBFCDBF16
S113006010E0A0E6B0E0EAE3FCE002C005900D92E7
S1130070A638B107D9F70E9475040C941B060C949A
S11300800000662309F443C0883068F44BB321E0D0
S113009030E0B90102C0660F771F8A95E2F7CB0101
S11300A0842B8BBB089598EF980F983068F448B36D
S11300B021E030E0B90102C0660F771F9A95E2F79C
S11300C0CB01842B88BB089590EF980F983068F487
S11300D045B321E030E0B90102C0660F771F9A955D
S11300E0E2F7CB01842B85BB089598EE980F9830E6
S11300F008F052C042B321E030E0B90102C0660FFB
S1130100771F9A95E2F7CB01842B82BB0895883040
S113011070F44BB321E030E0B90102C0660F771FE1
S11301208A95E2F7CB01809584238BBB089598EFE1
S1130130980F983070F448B321E030E0B90102C060
S1130140660F771F9A95E2F7CB018095842388BBCD
S1130150089590EF980F983070F445B321E030E0A3
S1130160B90102C0660F771F9A95E2F7CB0180951B
S1130170842385BB089598EE980F983068F442B3B1
S113018021E030E0B90102C0660F771F9A95E2F7CB
S1130190CB018095842382BB0895662309F443C070
S11301A0883068F44AB321E030E0B90102C0660F38
S11301B0771F8A95E2F7CB01842B8ABB089598EFC9
S11301C0980F983068F447B321E030E0B90102C0D9
S11301D0660F771F9A95E2F7CB01842B87BB0895AE
S11301E090EF980F983068F444B321E030E0B901FF
S11301F002C0660F771F9A95E2F7CB01842B84BB6C
S1130200089598EE980F983008F052C041B321E059
S113021030E0B90102C0660F771F9A95E2F7CB016F
S1130220842B81BB0895883070F44AB321E030E018
S1130230B90102C0660F771F8A95E2F7CB0180955A
S113024084238ABB089598EF980F983070F447B3CD
S113025021E030E0B90102C0660F771F9A95E2F7FA
S1130260CB018095842387BB089590EF980F983035
S113027070F444B321E030E0B90102C0660F771F87
S11302809A95E2F7CB018095842384BB089598EE78
S1130290980F983068F441B321E030E0B90102C00E
S11302A0660F771F9A95E2F7CB018095842381BB73
S11302B00895883058F429B330E0A90102C0559557
S11302C047958A95E2F7CA018170089598EF980FCF
S11302D0983058F426B330E0A90102C055954795EB
S11302E09A95E2F7CA018170089590EF980F9830BB
S11302F058F423B330E0A90102C0559547959A9567
S1130300E2F7CA018170089598EE980F983058F476
S113031020B330E0A90102C0559547959A95E2F7BC
S1130320CA018170089580E00895883059F018F466
S1130330882331F00895803139F0883139F00895F7
S11303406BBB089568BB089565BB089562BB0895AF
S1130350883059F018F4882331F00895803139F049
S1130360883139F008956ABB089567BB089564BB6A
S1130370089561BB0895883091F018F4882331F012
S113038029C08031A9F08831E1F024C089B390E01C
S113039002C0959587956A95E2F78170089586B3B2
S11303A090E002C0959587956A95E2F7817008956B
S11303B083B390E002C0959587956A95E2F78170C2
S11303C0089580B390E002C0959587956A95E2F709
S11303D08170089580E00895CF93DF93EC016FE07E
S11303E070E08A810E94A8016FEF70E08A810E9408
S11303F09501DF91CF9108952CE730E0FC01318322
S1130400208362830E94EC0108958F929F92AF92A1
S1130410BF92CF92DF92EF92FF92CF93C82F812C9D
S1130420912C5401750164018C2F0E945901811192
S11304300AC020E030E040E85FE3C501B4010E9457
S1130440BE044B015C0120E030E040E450E4C7010D
S1130450B6010E94160618167CF4A7019601C50180
S1130460B4010E942F0523E333E343E35FE30E94D7
S1130470160688235CF052C020E030E040E450E4EB
S1130480C701B6010E9416061816B4F4A701960116
S1130490C501B4010E942F059B01AC0160E070E02E
S11304A080E89FE30E94BD0423E333E343E35FE377
S11304B00E9416068823A4F520E030E046EC52E4BE
S11304C0C701B6010E942A05811113C020E030E063
S11304D046EC52E4C501B4010E942F05C1E020E0BE
S11304E030E040E05FE30E9416061816D4F0C0E046
S11304F018C020E030E040E85FE3C701B6010E9485
S1130500BE046B017C0120E030E048EC52E40E9420
S11305102A0588230CF488CFC0E003C0C1E001C0E1
S1130520C0E08C2FCF91FF90EF90DF90CF90BF90E1
S1130530AF909F908F900895AF92BF92CF92DF9229
S1130540EF92FF920F931F93CF93DF93A82EB92EB0
S11305507B01C82ED92ED0E0F701828160E08D0F97
S11305600E9441008601C0E0F70182818C5F8C0FFC
S11305700E940502F80181938F01CF5FC430A1F777
S1130580F701828161E08D0F0E944100DF5FF4E09A
S1130590CF0ED11CD43001F78A2D9B2DDF91CF9142
S11305A01F910F91FF90EF90DF90CF90BF90AF908D
S11305B00895CF93DF93EC0161E08B810E944100A9
S11305C00000000060E08B810E944100DF91CF9128
S11305D00895CF93DF93EC0160E070E08A810E947C
S11305E0A80161E08C810E94410060E08D810E943D
S11305F0410003C0CE010E94D90267E08A810E94B3
S1130600BB018823B9F36FEF70E08A810E94A801CF
S1130610DF91CF9108951F93CF93DF93EC01162FB1
S11306200E94E902612F70E08A810E94950160E0D6
S11306308C810E94410060E08D810E944100CE01C6
S11306400E94D90260E070E08A810E949501DF91E6
S1130650CF911F910895CF93DF93EC0161E08D81D9
S11306600E94CD0061E08C810E94CD0061E08B810D
S11306700E94CD0085EA9EE00197F1F700C00000DA
S113068061E0CE010E940B0383EF91E00197F1F743
S113069000C0000068E3CE010E940B0390E19A952C
S11306A0F1F700C06CE0CE010E940B0380E18A9553
S11306B0F1F700C0DF91CF9108950F93CF93DF93AB
S11306C0EC0182E890E09983888388E0E0E6F0E03A
S11306D0DE01169601900D928A95E1F76A834D83A7
S11306E02C830B83CE010E942B03DF91CF910F91BA
S11306F008956058FA013396EE0FFF1FE80FF91FB3
S11307002081620F0E940B0308951F93CF93DF9300
S1130710EC01162F0E94E902612F70E08A810E9489
S1130720950160E08C810E94410061E08D810E940E
S11307304100CE010E94D90260E070E08A810E94EB
S11307409501DF91CF911F9108950F931F93CF933C
S1130750DF93EB016881662341F08C012196C80187
S11307600E94850369916111FACFDF91CF911F91A6
S11307700F9108950F931F93CF93DF93EC01890199
S11307800E947903B801CE010E94A503DF91CF91A5
S11307901F910F91089520E1E8E6F0E0DC01129644
S11307A001900D922A95E1F724E630E0FC01338BA9
S11307B0228B24E830E03183208308958F929F9226
S11307C0AF92BF92CF92DF92EF92FF920F931F935B
S11307D0CF93DF93CDB7DEB760970FB6F894DEBF43
S11307E00FBECDBF89829A82AB82BC82CD82DE826B
S11307F0EF82F88609871A872B873C874D875E87A7
S11308006F87788BDC0152962D913C915397F901B7
S113081033230CF43396F595E795F595E795237016
S11308203078332334F4215031092C6F3F6F2F5F1C
S11308303F4FEE0FFF1FEE0FFF1F2E0F3F1FFE0156
S1130840E20FF31F2181211128C024E630E0FC01CE
S1130850338B228B22C0D6014D916D01442341F08C
S1130860DC0152964D915C91539742175307D9F48A
S113087031962F5F3F4F2617370769F70C5F1F4FDD
S11308809B0160317105F1F0F9013296E80FF91F0F
S1130890B9016C5F7F4F6801DECF8E010F5F1F4F80
S11308A020E030E0F1CFF080DC014D915C911197B4
S11308B04F0D511D11965C934E9353963C932E937A
S11308C05297D6CF60960FB6F894DEBF0FBECDBF59
S11308D0DF91CF911F910F91FF90EF90DF90CF9018
S11308E0BF90AF909F908F900895CF93DF93CDB733
S11308F0DEB7C554D1090FB6F894DEBF0FBECDBF25
S11309000DE12FE14AE168E0CE01C8960E945D0343
S113091060E0CE0185960E94FC01CE0141960E94C2
S1130920CB03BE016B5D7F4FCE0101960E949C02FA
S113093089809A80AB80BC80CD80DE80EF80F88493
S113094009851A852B853C854D855E856F8578895B
S1130950CE0141960E94DE0329893A8940E050E0A5
S113096060E070E0CE01C8960E94BA0387EA91E67F
S11309700197F1F700C00000D4CF5058BB27AA2735
S11309800E94D5040C94DC050E94CE0538F00E9428
S1130990D50520F039F49F3F19F426F40C94CB05C7
S11309A00EF4E095E7FB0C94C505E92F0E94ED05D4
S11309B058F3BA17620773078407950720F079F490
S11309C0A6F50C940F060EF4E0950B2EBA2FA02D6D
S11309D00B01B90190010C01CA01A0011124FF27E8
S11309E0591B99F0593F50F4503E68F11A16F040E3
S11309F0A22F232F342F4427585FF3CF46953795E2
S1130A002795A795F0405395C9F77EF41F16BA0BA6
S1130A10620B730B840BBAF09150A1F0FF0FBB1F54
S1130A20661F771F881FC2F70EC0BA0F621F731F9D
S1130A30841F48F4879577956795B795F7959E3FFA
S1130A4008F0B0CF9395880F08F09927EE0F97958B
S1130A50879508950E94A10508F481E008950E94F5
S1130A6043050C94DC050E94D50558F00E94CE0580
S1130A7040F029F45F3F29F00C94C50551110C9402
S1130A8010060C94CB050E94ED0568F39923B1F38D
S1130A90552391F3951B550BBB27AA2762177307A0
S1130AA0840738F09F5F5F4F220F331F441FAA1F34
S1130AB0A9F335D00E2E3AF0E0E832D091505040F0
S1130AC0E695001CCAF72BD0FE2F29D0660F771F9E
S1130AD0881FBB1F261737074807AB07B0E809F084
S1130AE0BB0B802DBF01FF2793585F4F3AF09E3F09
S1130AF0510578F00C94C5050C9410065F3FE4F39F
S1130B00983ED4F3869577956795B795F7959F5F4B
S1130B10C9F7880F911D9695879597F90895E1E097
S1130B20660F771F881FBB1F621773078407BA07F6
S1130B3020F0621B730B840BBA0BEE1F88F7E09551
S1130B400895990F0008550FAA0BE0E8FEEF16165A
S1130B501706E807F907C0F012161306E407F507AD
S1130B6098F0621B730B840B950B39F40A2661F021
S1130B70232B242B252B21F408950A2609F4A140C4
S1130B80A6958FEF811D811D089597F99F6780E8D1
S1130B9070E060E008959FEF80EC089500240A94CB
S1130BA01616170618060906089500240A94121644
S1130BB01306140605060895092E0394000C11F477
S1130BC0882352F0BB0F40F4BF2B11F460FF04C024
S1130BD06F5F7F4F8F4F9F4F089557FD9058440F7D
S1130BE0551F59F05F3F71F04795880F97FB991F88
S1130BF061F09F3F79F08795089512161306140645
S1130C00551FF2CF4695F1DF08C0161617061806D1
S1130C10991FF1CF86957105610508940895E894AC
S1130C20BB2766277727CB0197F908950E94A10572
S10D0C3008F48FEF0895F894FFCF45
S1130C3A0000400014005400313233413435364246
S1130C4A373839432A30234400000000EC010000FD
S1090C5A00002B03000062
S9030000FC
