S01D00004D6963726F636F6E74726F6C6C657253797374656D2E7372656344
S11300000C942A000C943F000C943F000C943F0085
S11300100C943F000C943F000C943F000C943F0060
S11300200C943F000C943F000C943F000C943F0050
S11300300C943F000C943F000C943F000C943F0040
S11300400C943F000C943F000C943F000C943F0030
S11300500C943F0011241FBECFE5D8E0DEBFCDBF16
S113006010E0A0E6B0E0E0E5F7E002C005900D92F4
S1130070A838B107D9F70E945D030C94A6030C9429
S113008000000895FC01718360830895DC01ED9103
S1130090FC9109950895CF93DF93EC0141E06C81C5
S11300A08B810E94E40040E06C818B810E9474008B
S11300B0DF91CF9108952CE630E0FC013183208359
S11300C06383448312820E944B0008950895CF9362
S11300D0DF93EC0141E06C818B810E94740081E02C
S11300E08A83DF91CF9108954423A9F181110BC034
S11300F02BB381E090E002C0880F991F6A95E2F764
S1130100822B8BBB0895813059F428B381E090E0B1
S113011002C0880F991F6A95E2F7822B88BB089565
S1130120823059F425B381E090E002C0880F991F12
S11301306A95E2F7822B85BB0895833009F043C0AA
S113014022B381E090E002C0880F991F6A95E2F71C
S1130150822B82BB089581110DC09BB321E030E056
S1130160062E02C0220F331F0A94E2F7209529239A
S11301702BBB1CC0813061F428B381E090E002C045
S1130180880F991F6A95E2F78095822388BB0895AA
S1130190823061F425B381E090E002C0880F991F9A
S11301A06A95E2F78095822385BB0895833059F4DC
S11301B022B381E090E002C0880F991F6A95E2F7AC
S11301C08095822382BB08954423A9F181110BC039
S11301D02AB381E090E002C0880F991F6A95E2F784
S11301E0822B8ABB0895813059F427B381E090E0D3
S11301F002C0880F991F6A95E2F7822B87BB089586
S1130200823059F424B381E090E002C0880F991F32
S11302106A95E2F7822B84BB0895833009F043C0CA
S113022021B381E090E002C0880F991F6A95E2F73C
S1130230822B81BB089581110DC09AB321E030E077
S1130240062E02C0220F331F0A94E2F720952923B9
S11302502ABB1CC0813061F427B381E090E002C066
S1130260880F991F6A95E2F78095822387BB0895CA
S1130270823061F424B381E090E002C0880F991FBA
S11302806A95E2F78095822384BB0895833059F4FC
S113029021B381E090E002C0880F991F6A95E2F7CC
S11302A08095822381BB0895811102C06BBB0895A0
S11302B0813011F468BB0895823011F465BB089550
S11302C0833009F462BB0895811102C06ABB0895AA
S11302D0813011F467BB0895823011F464BB089532
S11302E0833009F461BB0895811109C08AB390E099
S11302F002C0959587956A95E2F7817008958130DB
S113030049F487B390E002C0959587956A95E2F722
S113031081700895823049F484B390E002C09595C9
S113032087956A95E2F781700895833049F481B323
S113033090E002C0959587956A95E2F781700895DB
S113034080E008950895CF93DF93EC0141E06C8140
S11303508B810E9474000000000040E06C818B815E
S11303600E947400DF91CF910895CF93DF93EC0145
S113037060E070E08A810E94640141E06D818B81BC
S11303800E94740040E06E818B810E94740003C05F
S1130390CE010E94A30167E08A810E947401811149
S11303A0F7CF6FEF70E08A810E946401DF91CF91F3
S11303B008951F93CF93DF93EC01162F0E94B5018C
S11303C0612F70E08A810E94540140E06D818B812D
S11303D00E94740040E06E818B810E947400CE0103
S11303E00E94A30160E070E08A810E945401DF91C1
S11303F0CF911F910895CF93DF93EC0141E06E817B
S11304008B810E94E40041E06D818B810E94E400B5
S113041041E06C818B810E94E40085EA9EE00197B3
S1130420F1F700C0000061E0CE010E94D90183EF22
S113043091E00197F1F700C0000068E3CE010E944B
S1130440D90190E19A95F1F700C06CE0CE010E94C9
S1130450D90180E18A95F1F700C0DF91CF91089529
S1130460EF920F93CF93DF93EC0184E790E09983AD
S1130470888388E0E0E6F0E0DE01179601900D92B3
S11304808A95E1F76A834B832E830D83EC82CE0138
S11304900E94FB01DF91CF910F91EF900895605876
S11304A0FA01EE0FFF1FE80FF91F2781620F0E9468
S11304B0D9010895611104C06CE00E94D90109C0FA
S11304C0411104C06EE00E94D90103C06FE00E9494
S11304D0D90180E18A95F1F700C008951F93CF9365
S11304E0DF93EC01162F0E94B501612F70E08A8121
S11304F00E94540140E06D818B810E94740041E0B0
S11305006E818B810E947400CE010E94A30160E081
S113051070E08A810E945401DF91CF911F91089568
S11305200F931F93CF93DF93EB016881662341F010
S11305308C012196C8010E946E0269916111FACF63
S1130540DF91CF911F910F9108950F931F93CF9334
S1130550DF93EC0189010E944F02B801CE010E9491
S11305609002DF91CF911F910F9108954F925F9266
S11305706F927F928F929F92AF92BF92CF92DF92AF
S1130580EF92FF920F931F93CF93DF93CDB7DEB714
S11305906C015B014A01C9016DB67EB62DB73EB749
S11305A0201B310B0FB6F8943EBF0FBE2DBF2F5F3B
S11305B03F4F29014AE0B9010E9471031016110648
S11305C06CF4E12CF12C6EE670E0C6010E949002FE
S11305D03FEFE31AF30AE016F106A9F79201A4012A
S11305E0B501C6010E94A5020FB6F8947EBE0FBEE7
S11305F06DBEDF91CF911F910F91FF90EF90DF902F
S1130600CF90BF90AF909F908F907F906F905F90AE
S11306104F900895EF920F931F93CF93DF93CDB72D
S1130620DEB764970FB6F894DEBF0FBECDBF46E0C9
S113063062E0CE0140960E945B000F2EF5E0EF2EA3
S1130640F02D07E022E043E061E0CE0101960E9434
S11306503002CE0140960E94670026E730E040E079
S113066050E060E070E0CE0101960E94A50205E032
S113067010E02DE135E041E050E065E070E0CE01AE
S113068001960E94B60241E061E0CE0101960E940B
S11306905A02CE0101960E94A201CE0140960E9408
S11306A0660064960FB6F894DEBF0FBECDBFDF912F
S11306B0CF911F910F91EF900895CF93DF9300D0C6
S11306C0CDB7DEB7CE0101960E9441006AE073E027
S11306D0CE0101960E944200CE0101960E9446007E
S11306E0FFCFBB274A3031F4992322F4BDE2909521
S11306F081959F4F0C947D03BB27FB015527AA27A7
S1130700880F991FAA1FA41710F0A41B839550519A
S1130710B9F7A05DAA3308F0A95DA193009779F712
S1130720B111B1931192CB010C949603DC01FC013D
S1130730672F71917723E1F7329704C07C916D9311
S113074070836291AE17BF07C8F30895F894FFCF82
S11307500000400014005400000000004B00200082
S113076000000000FB0148656C6C6F20436F6E74E1
S10B0770726F6C6C65720000ED
S9030000FC
